{
  "contractName": "WallOfChainMarket",
  "abi": [
    {
      "constant": true,
      "inputs": [],
      "name": "weiRaised",
      "outputs": [
        {
          "name": "",
          "type": "uint256"
        }
      ],
      "payable": false,
      "stateMutability": "view",
      "type": "function"
    },
    {
      "constant": true,
      "inputs": [],
      "name": "wallet",
      "outputs": [
        {
          "name": "",
          "type": "address"
        }
      ],
      "payable": false,
      "stateMutability": "view",
      "type": "function"
    },
    {
      "constant": false,
      "inputs": [],
      "name": "renounceOwnership",
      "outputs": [],
      "payable": false,
      "stateMutability": "nonpayable",
      "type": "function"
    },
    {
      "constant": false,
      "inputs": [
        {
          "name": "tokenAddress",
          "type": "address"
        },
        {
          "name": "tokenAmount",
          "type": "uint256"
        }
      ],
      "name": "recoverERC20",
      "outputs": [],
      "payable": false,
      "stateMutability": "nonpayable",
      "type": "function"
    },
    {
      "constant": true,
      "inputs": [],
      "name": "owner",
      "outputs": [
        {
          "name": "",
          "type": "address"
        }
      ],
      "payable": false,
      "stateMutability": "view",
      "type": "function"
    },
    {
      "constant": true,
      "inputs": [],
      "name": "isOwner",
      "outputs": [
        {
          "name": "",
          "type": "bool"
        }
      ],
      "payable": false,
      "stateMutability": "view",
      "type": "function"
    },
    {
      "constant": false,
      "inputs": [
        {
          "name": "newOwner",
          "type": "address"
        }
      ],
      "name": "transferOwnership",
      "outputs": [],
      "payable": false,
      "stateMutability": "nonpayable",
      "type": "function"
    },
    {
      "constant": true,
      "inputs": [],
      "name": "token",
      "outputs": [
        {
          "name": "",
          "type": "address"
        }
      ],
      "payable": false,
      "stateMutability": "view",
      "type": "function"
    },
    {
      "inputs": [
        {
          "name": "_wallet",
          "type": "address"
        },
        {
          "name": "_token",
          "type": "address"
        }
      ],
      "payable": false,
      "stateMutability": "nonpayable",
      "type": "constructor"
    },
    {
      "anonymous": false,
      "inputs": [
        {
          "indexed": true,
          "name": "purchaser",
          "type": "address"
        },
        {
          "indexed": true,
          "name": "beneficiary",
          "type": "address"
        },
        {
          "indexed": false,
          "name": "value",
          "type": "uint256"
        },
        {
          "indexed": false,
          "name": "tokenId",
          "type": "uint256"
        }
      ],
      "name": "TokenPurchase",
      "type": "event"
    },
    {
      "anonymous": false,
      "inputs": [
        {
          "indexed": true,
          "name": "beneficiary",
          "type": "address"
        },
        {
          "indexed": false,
          "name": "value",
          "type": "uint256"
        },
        {
          "indexed": false,
          "name": "tokenId",
          "type": "uint256"
        }
      ],
      "name": "TokenEdit",
      "type": "event"
    },
    {
      "anonymous": false,
      "inputs": [
        {
          "indexed": true,
          "name": "previousOwner",
          "type": "address"
        },
        {
          "indexed": true,
          "name": "newOwner",
          "type": "address"
        }
      ],
      "name": "OwnershipTransferred",
      "type": "event"
    },
    {
      "constant": false,
      "inputs": [
        {
          "name": "_beneficiary",
          "type": "address"
        },
        {
          "name": "_firstName",
          "type": "string"
        },
        {
          "name": "_lastName",
          "type": "string"
        },
        {
          "name": "_pattern",
          "type": "uint256"
        },
        {
          "name": "_icon",
          "type": "uint256"
        }
      ],
      "name": "buyToken",
      "outputs": [],
      "payable": true,
      "stateMutability": "payable",
      "type": "function"
    },
    {
      "constant": false,
      "inputs": [
        {
          "name": "_tokenId",
          "type": "uint256"
        },
        {
          "name": "_firstName",
          "type": "string"
        },
        {
          "name": "_lastName",
          "type": "string"
        },
        {
          "name": "_pattern",
          "type": "uint256"
        },
        {
          "name": "_icon",
          "type": "uint256"
        }
      ],
      "name": "editToken",
      "outputs": [],
      "payable": true,
      "stateMutability": "payable",
      "type": "function"
    },
    {
      "constant": false,
      "inputs": [
        {
          "name": "_newWallet",
          "type": "address"
        }
      ],
      "name": "changeWallet",
      "outputs": [],
      "payable": false,
      "stateMutability": "nonpayable",
      "type": "function"
    }
  ],
  "bytecode": "0x608060405234801561001057600080fd5b50604051604080610cb3833981016040819052815160209092015160008054600160a060020a03191633178082559192600160a060020a0392909216917f8be0079c531659141344cd1fd0a4f28419497f9722a3daafe3b4186f6b6457e0908290a3600160a060020a03821615156100e957604080517f08c379a000000000000000000000000000000000000000000000000000000000815260206004820181905260248201527f57616c6c65742063616e277420626520746865207a65726f2061646472657373604482015290519081900360640190fd5b600160a060020a038116151561016057604080517f08c379a000000000000000000000000000000000000000000000000000000000815260206004820152601f60248201527f546f6b656e2063616e277420626520746865207a65726f206164647265737300604482015290519081900360640190fd5b60028054600160a060020a03938416600160a060020a03199182161790915560018054929093169116179055610b188061019b6000396000f3006080604052600436106100955763ffffffff60e060020a6000350416634042b66f811461009a578063521eb273146100c1578063715018a6146100f25780637d2d1dc9146101095780638980f11f146101aa5780638da5cb5b146101ce5780638f32d59b146101e357806398b9a2dc1461020c578063f2fde38b1461022d578063fc0c546a1461024e578063fe8d4fcb14610263575b600080fd5b3480156100a657600080fd5b506100af6102fb565b60408051918252519081900360200190f35b3480156100cd57600080fd5b506100d6610301565b60408051600160a060020a039092168252519081900360200190f35b3480156100fe57600080fd5b50610107610310565b005b60408051602060046024803582810135601f8101859004850286018501909652858552610107958335600160a060020a031695369560449491939091019190819084018382808284375050604080516020601f89358b018035918201839004830284018301909452808352979a99988101979196509182019450925082915084018382808284375094975050843595505050602090920135915061037a9050565b3480156101b657600080fd5b50610107600160a060020a0360043516602435610403565b3480156101da57600080fd5b506100d66104b0565b3480156101ef57600080fd5b506101f86104bf565b604080519115158252519081900360200190f35b34801561021857600080fd5b50610107600160a060020a03600435166104d0565b34801561023957600080fd5b50610107600160a060020a0360043516610589565b34801561025a57600080fd5b506100d66105a8565b60408051602060046024803582810135601f810185900485028601850190965285855261010795833595369560449491939091019190819084018382808284375050604080516020601f89358b018035918201839004830284018301909452808352979a9998810197919650918201945092508291508401838280828437509497505084359550505060209092013591506105b79050565b60035481565b600254600160a060020a031681565b6103186104bf565b151561032357600080fd5b60008054604051600160a060020a03909116907f8be0079c531659141344cd1fd0a4f28419497f9722a3daafe3b4186f6b6457e0908390a36000805473ffffffffffffffffffffffffffffffffffffffff19169055565b3460006103868761074d565b600354610399908363ffffffff6107ea16565b6003556103aa878388888888610803565b60408051848152602081018390528151929350600160a060020a038a169233927f623b3804fa71d67900d064613da8f94b9617215ee90799290593e1745087ad18928290030190a36103fa610995565b50505050505050565b61040b6104bf565b151561041657600080fd5b81600160a060020a031663a9059cbb61042d6104b0565b836040518363ffffffff1660e060020a0281526004018083600160a060020a0316600160a060020a0316815260200182815260200192505050602060405180830381600087803b15801561048057600080fd5b505af1158015610494573d6000803e3d6000fd5b505050506040513d60208110156104aa57600080fd5b50505050565b600054600160a060020a031690565b600054600160a060020a0316331490565b6104d86104bf565b15156104e357600080fd5b600160a060020a038116151561055a57604080517f08c379a000000000000000000000000000000000000000000000000000000000815260206004820181905260248201527f57616c6c65742063616e277420626520746865207a65726f2061646472657373604482015290519081900360640190fd5b6002805473ffffffffffffffffffffffffffffffffffffffff1916600160a060020a0392909216919091179055565b6105916104bf565b151561059c57600080fd5b6105a5816109d9565b50565b600154600160a060020a031681565b600154604080517f6352211e00000000000000000000000000000000000000000000000000000000815260048101889052905160009283928392600160a060020a0390921691636352211e9160248082019260209290919082900301818787803b15801561062457600080fd5b505af1158015610638573d6000803e3d6000fd5b505050506040513d602081101561064e57600080fd5b5051925033600160a060020a038416146106c957604080517f08c379a000000000000000000000000000000000000000000000000000000000815260206004820152601a60248201527f53656e646572206d75737420626520746f6b656e206f776e6572000000000000604482015290519081900360640190fd5b6003543492506106df908363ffffffff6107ea16565b6003556106f0888389898989610a56565b905082600160a060020a03167fed4a25c8a0ec38a79a04126e27a94baee59f94e6c6512bb23d8daf85aa150feb8383604051808381526020018281526020019250505060405180910390a2610743610995565b5050505050505050565b600160a060020a03811615156105a557604080517f08c379a000000000000000000000000000000000000000000000000000000000815260206004820152602560248201527f42656e65666963696172792063616e277420626520746865207a65726f20616460448201527f6472657373000000000000000000000000000000000000000000000000000000606482015290519081900360840190fd5b6000828201838110156107fc57600080fd5b9392505050565b6000600160009054906101000a9004600160a060020a0316600160a060020a0316639c7706848888888888886040518763ffffffff1660e060020a0281526004018087600160a060020a0316600160a060020a031681526020018681526020018060200180602001858152602001848152602001838103835287818151815260200191508051906020019080838360005b838110156108ac578181015183820152602001610894565b50505050905090810190601f1680156108d95780820380516001836020036101000a031916815260200191505b50838103825286518152865160209182019188019080838360005b8381101561090c5781810151838201526020016108f4565b50505050905090810190601f1680156109395780820380516001836020036101000a031916815260200191505b5098505050505050505050602060405180830381600087803b15801561095e57600080fd5b505af1158015610972573d6000803e3d6000fd5b505050506040513d602081101561098857600080fd5b5051979650505050505050565b60003411156109d757600254604051600160a060020a03909116903480156108fc02916000818181858888f193505050501580156105a5573d6000803e3d6000fd5b565b600160a060020a03811615156109ee57600080fd5b60008054604051600160a060020a03808516939216917f8be0079c531659141344cd1fd0a4f28419497f9722a3daafe3b4186f6b6457e091a36000805473ffffffffffffffffffffffffffffffffffffffff1916600160a060020a0392909216919091179055565b6000600160009054906101000a9004600160a060020a0316600160a060020a031663b40bb85d8888888888886040518763ffffffff1660e060020a02815260040180878152602001868152602001806020018060200185815260200184815260200183810383528781815181526020019150805190602001908083836000838110156108ac5781810151838201526020016108945600a165627a7a72305820beb8500573fcbf2b2cb9c021f0da5c0074a09a8cb1ade9adcd6e386641c025720029",
  "source": "pragma solidity ^0.4.24;\n\nimport \"openzeppelin-solidity/contracts/math/SafeMath.sol\";\nimport \"eth-token-recover/contracts/TokenRecover.sol\";\nimport \"./WallOfChainToken.sol\";\n\n\ncontract WallOfChainMarket is TokenRecover {\n  using SafeMath for uint256;\n\n  // The token being sold\n  WallOfChainToken public token;\n\n  // Address where funds are collected\n  address public wallet;\n\n  // Amount of wei raised\n  uint256 public weiRaised;\n\n  /**\n   * Event for token purchase logging\n   * @param purchaser who paid for the tokens\n   * @param beneficiary who got the tokens\n   * @param value weis paid for purchase\n   * @param tokenId the token id purchased\n   */\n  event TokenPurchase(\n    address indexed purchaser,\n    address indexed beneficiary,\n    uint256 value,\n    uint256 tokenId\n  );\n\n  /**\n   * Event for token edit logging\n   * @param beneficiary who has the tokens\n   * @param value weis added in edit\n   * @param tokenId the token id edited\n   */\n  event TokenEdit(\n    address indexed beneficiary,\n    uint256 value,\n    uint256 tokenId\n  );\n\n  /**\n   * @param _wallet Address where collected funds will be forwarded to\n   * @param _token Address of the token being sold\n   */\n  constructor(address _wallet, WallOfChainToken _token) public {\n    require(\n      _wallet != address(0),\n      \"Wallet can't be the zero address\"\n    );\n    require(\n      _token != address(0),\n      \"Token can't be the zero address\"\n    );\n\n    wallet = _wallet;\n    token = _token;\n  }\n\n  /**\n   * @dev low level token purchase ***DO NOT OVERRIDE***\n   */\n  function buyToken(\n    address _beneficiary,\n    string _firstName,\n    string _lastName,\n    uint256 _pattern,\n    uint256 _icon\n  )\n  public\n  payable\n  {\n    uint256 weiAmount = msg.value;\n\n    _preValidatePurchase(_beneficiary);\n\n    // update state\n    weiRaised = weiRaised.add(weiAmount);\n\n    uint256 lastTokenId = _processPurchase(\n      _beneficiary,\n      weiAmount,\n      _firstName,\n      _lastName,\n      _pattern,\n      _icon\n    );\n\n    emit TokenPurchase(\n      msg.sender,\n      _beneficiary,\n      weiAmount,\n      lastTokenId\n    );\n\n    _forwardFunds();\n  }\n\n  /**\n   * @dev low level token edit\n   */\n  function editToken(\n    uint256 _tokenId,\n    string _firstName,\n    string _lastName,\n    uint256 _pattern,\n    uint256 _icon\n  )\n  public\n  payable\n  {\n    address tokenOwner = token.ownerOf(_tokenId);\n    require(msg.sender == tokenOwner, \"Sender must be token owner\");\n\n    // update state\n    uint256 weiAmount = msg.value;\n    weiRaised = weiRaised.add(weiAmount);\n\n    uint256 currentTokenId = _processEdit(\n      _tokenId,\n      weiAmount,\n      _firstName,\n      _lastName,\n      _pattern,\n      _icon\n    );\n\n    emit TokenEdit(\n      tokenOwner,\n      weiAmount,\n      currentTokenId\n    );\n\n    _forwardFunds();\n  }\n\n  /**\n   * @dev change the destination wallet\n   */\n  function changeWallet(address _newWallet) public onlyOwner {\n    require(\n      _newWallet != address(0),\n      \"Wallet can't be the zero address\"\n    );\n\n    wallet = _newWallet;\n  }\n\n  // -----------------------------------------\n  // Internal interface (extensible)\n  // -----------------------------------------\n\n  /**\n   * @dev Validation of an incoming purchase. Use require statements to revert state when conditions are not met. Use super to concatenate validations.\n   * @param _beneficiary Address performing the token purchase\n   */\n  function _preValidatePurchase(\n    address _beneficiary\n  )\n  internal\n  pure\n  {\n    require(\n      _beneficiary != address(0),\n      \"Beneficiary can't be the zero address\"\n    );\n  }\n\n  /**\n   * @dev Executed when a purchase has been validated and is ready to be executed.\n   */\n  function _processPurchase(\n    address _beneficiary,\n    uint256 _weiAmount,\n    string _firstName,\n    string _lastName,\n    uint256 _pattern,\n    uint256 _icon\n  )\n  internal\n  returns (uint256)\n  {\n    return token.newToken(\n      _beneficiary,\n      _weiAmount,\n      _firstName,\n      _lastName,\n      _pattern,\n      _icon\n    );\n  }\n\n  /**\n   * @dev Executed when a edit has been validated and is ready to be executed.\n   */\n  function _processEdit(\n    uint256 _tokenId,\n    uint256 _weiAmount,\n    string _firstName,\n    string _lastName,\n    uint256 _pattern,\n    uint256 _icon\n  )\n  internal\n  returns (uint256)\n  {\n    return token.editToken(\n      _tokenId,\n      _weiAmount,\n      _firstName,\n      _lastName,\n      _pattern,\n      _icon\n    );\n  }\n\n  /**\n   * @dev Determines how ETH is stored/forwarded on purchases.\n   */\n  function _forwardFunds() internal {\n    if (msg.value > 0) {\n      wallet.transfer(msg.value);\n    }\n  }\n}\n",
  "sourcePath": "/Users/vittominacori/Projects/paneedesign/wallofchain/wallofchain-smartcontracts/contracts/WallOfChainMarket.sol",
  "compiler": {
    "name": "solc",
    "version": "0.4.24+commit.e67f0147.Emscripten.clang"
  },
  "schemaVersion": "2.0.1",
  "updatedAt": "2018-11-02T10:35:25.801Z"
}