{
  "contractName": "WallOfChainToken",
  "abi": [
    {
      "constant": true,
      "inputs": [
        {
          "name": "interfaceId",
          "type": "bytes4"
        }
      ],
      "name": "supportsInterface",
      "outputs": [
        {
          "name": "",
          "type": "bool"
        }
      ],
      "payable": false,
      "stateMutability": "view",
      "type": "function"
    },
    {
      "constant": true,
      "inputs": [],
      "name": "mintingFinished",
      "outputs": [
        {
          "name": "",
          "type": "bool"
        }
      ],
      "payable": false,
      "stateMutability": "view",
      "type": "function"
    },
    {
      "constant": true,
      "inputs": [],
      "name": "name",
      "outputs": [
        {
          "name": "",
          "type": "string"
        }
      ],
      "payable": false,
      "stateMutability": "view",
      "type": "function"
    },
    {
      "constant": true,
      "inputs": [
        {
          "name": "tokenId",
          "type": "uint256"
        }
      ],
      "name": "getApproved",
      "outputs": [
        {
          "name": "",
          "type": "address"
        }
      ],
      "payable": false,
      "stateMutability": "view",
      "type": "function"
    },
    {
      "constant": false,
      "inputs": [
        {
          "name": "to",
          "type": "address"
        },
        {
          "name": "tokenId",
          "type": "uint256"
        }
      ],
      "name": "approve",
      "outputs": [],
      "payable": false,
      "stateMutability": "nonpayable",
      "type": "function"
    },
    {
      "constant": true,
      "inputs": [],
      "name": "totalSupply",
      "outputs": [
        {
          "name": "",
          "type": "uint256"
        }
      ],
      "payable": false,
      "stateMutability": "view",
      "type": "function"
    },
    {
      "constant": false,
      "inputs": [
        {
          "name": "from",
          "type": "address"
        },
        {
          "name": "to",
          "type": "address"
        },
        {
          "name": "tokenId",
          "type": "uint256"
        }
      ],
      "name": "transferFrom",
      "outputs": [],
      "payable": false,
      "stateMutability": "nonpayable",
      "type": "function"
    },
    {
      "constant": true,
      "inputs": [
        {
          "name": "owner",
          "type": "address"
        },
        {
          "name": "index",
          "type": "uint256"
        }
      ],
      "name": "tokenOfOwnerByIndex",
      "outputs": [
        {
          "name": "",
          "type": "uint256"
        }
      ],
      "payable": false,
      "stateMutability": "view",
      "type": "function"
    },
    {
      "constant": false,
      "inputs": [
        {
          "name": "from",
          "type": "address"
        },
        {
          "name": "to",
          "type": "address"
        },
        {
          "name": "tokenId",
          "type": "uint256"
        }
      ],
      "name": "safeTransferFrom",
      "outputs": [],
      "payable": false,
      "stateMutability": "nonpayable",
      "type": "function"
    },
    {
      "constant": true,
      "inputs": [
        {
          "name": "index",
          "type": "uint256"
        }
      ],
      "name": "tokenByIndex",
      "outputs": [
        {
          "name": "",
          "type": "uint256"
        }
      ],
      "payable": false,
      "stateMutability": "view",
      "type": "function"
    },
    {
      "constant": true,
      "inputs": [
        {
          "name": "tokenId",
          "type": "uint256"
        }
      ],
      "name": "ownerOf",
      "outputs": [
        {
          "name": "",
          "type": "address"
        }
      ],
      "payable": false,
      "stateMutability": "view",
      "type": "function"
    },
    {
      "constant": true,
      "inputs": [
        {
          "name": "owner",
          "type": "address"
        }
      ],
      "name": "balanceOf",
      "outputs": [
        {
          "name": "",
          "type": "uint256"
        }
      ],
      "payable": false,
      "stateMutability": "view",
      "type": "function"
    },
    {
      "constant": false,
      "inputs": [],
      "name": "renounceOwnership",
      "outputs": [],
      "payable": false,
      "stateMutability": "nonpayable",
      "type": "function"
    },
    {
      "constant": false,
      "inputs": [
        {
          "name": "tokenAddress",
          "type": "address"
        },
        {
          "name": "tokenAmount",
          "type": "uint256"
        }
      ],
      "name": "recoverERC20",
      "outputs": [],
      "payable": false,
      "stateMutability": "nonpayable",
      "type": "function"
    },
    {
      "constant": true,
      "inputs": [],
      "name": "owner",
      "outputs": [
        {
          "name": "",
          "type": "address"
        }
      ],
      "payable": false,
      "stateMutability": "view",
      "type": "function"
    },
    {
      "constant": true,
      "inputs": [],
      "name": "isOwner",
      "outputs": [
        {
          "name": "",
          "type": "bool"
        }
      ],
      "payable": false,
      "stateMutability": "view",
      "type": "function"
    },
    {
      "constant": true,
      "inputs": [],
      "name": "symbol",
      "outputs": [
        {
          "name": "",
          "type": "string"
        }
      ],
      "payable": false,
      "stateMutability": "view",
      "type": "function"
    },
    {
      "constant": false,
      "inputs": [
        {
          "name": "account",
          "type": "address"
        }
      ],
      "name": "addMinter",
      "outputs": [],
      "payable": false,
      "stateMutability": "nonpayable",
      "type": "function"
    },
    {
      "constant": false,
      "inputs": [],
      "name": "renounceMinter",
      "outputs": [],
      "payable": false,
      "stateMutability": "nonpayable",
      "type": "function"
    },
    {
      "constant": false,
      "inputs": [
        {
          "name": "to",
          "type": "address"
        },
        {
          "name": "approved",
          "type": "bool"
        }
      ],
      "name": "setApprovalForAll",
      "outputs": [],
      "payable": false,
      "stateMutability": "nonpayable",
      "type": "function"
    },
    {
      "constant": true,
      "inputs": [
        {
          "name": "account",
          "type": "address"
        }
      ],
      "name": "isMinter",
      "outputs": [
        {
          "name": "",
          "type": "bool"
        }
      ],
      "payable": false,
      "stateMutability": "view",
      "type": "function"
    },
    {
      "constant": false,
      "inputs": [
        {
          "name": "from",
          "type": "address"
        },
        {
          "name": "to",
          "type": "address"
        },
        {
          "name": "tokenId",
          "type": "uint256"
        },
        {
          "name": "_data",
          "type": "bytes"
        }
      ],
      "name": "safeTransferFrom",
      "outputs": [],
      "payable": false,
      "stateMutability": "nonpayable",
      "type": "function"
    },
    {
      "constant": true,
      "inputs": [],
      "name": "progressiveId",
      "outputs": [
        {
          "name": "",
          "type": "uint256"
        }
      ],
      "payable": false,
      "stateMutability": "view",
      "type": "function"
    },
    {
      "constant": true,
      "inputs": [
        {
          "name": "tokenId",
          "type": "uint256"
        }
      ],
      "name": "tokenURI",
      "outputs": [
        {
          "name": "",
          "type": "string"
        }
      ],
      "payable": false,
      "stateMutability": "view",
      "type": "function"
    },
    {
      "constant": true,
      "inputs": [
        {
          "name": "owner",
          "type": "address"
        },
        {
          "name": "operator",
          "type": "address"
        }
      ],
      "name": "isApprovedForAll",
      "outputs": [
        {
          "name": "",
          "type": "bool"
        }
      ],
      "payable": false,
      "stateMutability": "view",
      "type": "function"
    },
    {
      "constant": false,
      "inputs": [
        {
          "name": "newOwner",
          "type": "address"
        }
      ],
      "name": "transferOwnership",
      "outputs": [],
      "payable": false,
      "stateMutability": "nonpayable",
      "type": "function"
    },
    {
      "inputs": [
        {
          "name": "_name",
          "type": "string"
        },
        {
          "name": "_symbol",
          "type": "string"
        }
      ],
      "payable": false,
      "stateMutability": "nonpayable",
      "type": "constructor"
    },
    {
      "anonymous": false,
      "inputs": [
        {
          "indexed": true,
          "name": "account",
          "type": "address"
        }
      ],
      "name": "MinterAdded",
      "type": "event"
    },
    {
      "anonymous": false,
      "inputs": [
        {
          "indexed": true,
          "name": "account",
          "type": "address"
        }
      ],
      "name": "MinterRemoved",
      "type": "event"
    },
    {
      "anonymous": false,
      "inputs": [
        {
          "indexed": true,
          "name": "previousOwner",
          "type": "address"
        },
        {
          "indexed": true,
          "name": "newOwner",
          "type": "address"
        }
      ],
      "name": "OwnershipTransferred",
      "type": "event"
    },
    {
      "anonymous": false,
      "inputs": [
        {
          "indexed": true,
          "name": "from",
          "type": "address"
        },
        {
          "indexed": true,
          "name": "to",
          "type": "address"
        },
        {
          "indexed": true,
          "name": "tokenId",
          "type": "uint256"
        }
      ],
      "name": "Transfer",
      "type": "event"
    },
    {
      "anonymous": false,
      "inputs": [
        {
          "indexed": true,
          "name": "owner",
          "type": "address"
        },
        {
          "indexed": true,
          "name": "approved",
          "type": "address"
        },
        {
          "indexed": true,
          "name": "tokenId",
          "type": "uint256"
        }
      ],
      "name": "Approval",
      "type": "event"
    },
    {
      "anonymous": false,
      "inputs": [
        {
          "indexed": true,
          "name": "owner",
          "type": "address"
        },
        {
          "indexed": true,
          "name": "operator",
          "type": "address"
        },
        {
          "indexed": false,
          "name": "approved",
          "type": "bool"
        }
      ],
      "name": "ApprovalForAll",
      "type": "event"
    },
    {
      "constant": false,
      "inputs": [],
      "name": "finishMinting",
      "outputs": [],
      "payable": false,
      "stateMutability": "nonpayable",
      "type": "function"
    },
    {
      "constant": false,
      "inputs": [
        {
          "name": "_beneficiary",
          "type": "address"
        },
        {
          "name": "_value",
          "type": "uint256"
        },
        {
          "name": "_firstName",
          "type": "string"
        },
        {
          "name": "_lastName",
          "type": "string"
        },
        {
          "name": "_pattern",
          "type": "uint256"
        },
        {
          "name": "_icon",
          "type": "uint256"
        }
      ],
      "name": "newToken",
      "outputs": [
        {
          "name": "",
          "type": "uint256"
        }
      ],
      "payable": false,
      "stateMutability": "nonpayable",
      "type": "function"
    },
    {
      "constant": false,
      "inputs": [
        {
          "name": "_tokenId",
          "type": "uint256"
        },
        {
          "name": "_value",
          "type": "uint256"
        },
        {
          "name": "_firstName",
          "type": "string"
        },
        {
          "name": "_lastName",
          "type": "string"
        },
        {
          "name": "_pattern",
          "type": "uint256"
        },
        {
          "name": "_icon",
          "type": "uint256"
        }
      ],
      "name": "editToken",
      "outputs": [
        {
          "name": "",
          "type": "uint256"
        }
      ],
      "payable": false,
      "stateMutability": "nonpayable",
      "type": "function"
    },
    {
      "constant": true,
      "inputs": [
        {
          "name": "_tokenId",
          "type": "uint256"
        }
      ],
      "name": "getWall",
      "outputs": [
        {
          "name": "tokenOwner",
          "type": "address"
        },
        {
          "name": "value",
          "type": "uint256"
        },
        {
          "name": "firstName",
          "type": "string"
        },
        {
          "name": "lastName",
          "type": "string"
        },
        {
          "name": "pattern",
          "type": "uint256"
        },
        {
          "name": "icon",
          "type": "uint256"
        }
      ],
      "payable": false,
      "stateMutability": "view",
      "type": "function"
    },
    {
      "constant": true,
      "inputs": [
        {
          "name": "_tokenId",
          "type": "uint256"
        }
      ],
      "name": "getValue",
      "outputs": [
        {
          "name": "",
          "type": "uint256"
        }
      ],
      "payable": false,
      "stateMutability": "view",
      "type": "function"
    },
    {
      "constant": true,
      "inputs": [
        {
          "name": "_tokenId",
          "type": "uint256"
        }
      ],
      "name": "getNextNode",
      "outputs": [
        {
          "name": "",
          "type": "bool"
        },
        {
          "name": "",
          "type": "uint256"
        }
      ],
      "payable": false,
      "stateMutability": "view",
      "type": "function"
    },
    {
      "constant": true,
      "inputs": [
        {
          "name": "_tokenId",
          "type": "uint256"
        }
      ],
      "name": "getPreviousNode",
      "outputs": [
        {
          "name": "",
          "type": "bool"
        },
        {
          "name": "",
          "type": "uint256"
        }
      ],
      "payable": false,
      "stateMutability": "view",
      "type": "function"
    },
    {
      "constant": false,
      "inputs": [
        {
          "name": "_tokenId",
          "type": "uint256"
        }
      ],
      "name": "burn",
      "outputs": [],
      "payable": false,
      "stateMutability": "nonpayable",
      "type": "function"
    }
  ],
  "bytecode": "0x6080604052600f805460ff1916905560006010553480156200002057600080fd5b50604051620026e6380380620026e683398101604052805160208201519082019101818181816200007a7f01ffc9a700000000000000000000000000000000000000000000000000000000640100000000620001ae810204565b620000ae7f80ac58cd00000000000000000000000000000000000000000000000000000000640100000000620001ae810204565b620000e27f780e9d6300000000000000000000000000000000000000000000000000000000640100000000620001ae810204565b8151620000f790600990602085019062000300565b5080516200010d90600a90602084019062000300565b50620001427f5b5e139f00000000000000000000000000000000000000000000000000000000640100000000620001ae810204565b5050600c8054600160a060020a031916331790819055604051600160a060020a03919091169250600091507f8be0079c531659141344cd1fd0a4f28419497f9722a3daafe3b4186f6b6457e0908290a3620001a6336401000000006200021b810204565b5050620003a5565b7fffffffff000000000000000000000000000000000000000000000000000000008082161415620001de57600080fd5b7fffffffff00000000000000000000000000000000000000000000000000000000166000908152602081905260409020805460ff19166001179055565b62000236600d826401000000006200201b6200026d82021704565b604051600160a060020a038216907f6ae172837ea30b801fbfcdd4108aa1d5bf8ff775444fd70256b44e6bf3dfc3f690600090a250565b600160a060020a03811615156200028357600080fd5b620002988282640100000000620002c8810204565b15620002a357600080fd5b600160a060020a0316600090815260209190915260409020805460ff19166001179055565b6000600160a060020a0382161515620002e057600080fd5b50600160a060020a03166000908152602091909152604090205460ff1690565b828054600181600116156101000203166002900490600052602060002090601f016020900481019282601f106200034357805160ff191683800117855562000373565b8280016001018555821562000373579182015b828111156200037357825182559160200191906001019062000356565b506200038192915062000385565b5090565b620003a291905b808211156200038157600081556001016200038c565b90565b61233180620003b56000396000f3006080604052600436106101925763ffffffff60e060020a60003504166301ffc9a7811461019757806305d2035b146101e257806306fdde03146101f7578063081812fc14610281578063095ea7b3146102b55780630ff4c916146102db57806318160ddd1461030557806323b872dd1461031a5780632f745c591461034457806342842e0e1461036857806342966c68146103925780634f6ccce7146103aa5780636352211e146103c25780636d902bfb146103da57806370a082311461040d578063715018a61461042e5780637d64bcb4146104435780638980f11f146104585780638da5cb5b1461047c5780638f32d59b1461049157806392c2cd8c146104a657806395d89b41146104be578063983b2d56146104d357806398650275146104f45780639c77068414610509578063a22cb465146105b9578063aa271e1a146105df578063b40bb85d14610600578063b88d4fde146106a7578063c3b909d714610716578063c87b56dd1461072b578063e985e9c514610743578063f2fde38b1461076a578063ff91e4891461078b575b600080fd5b3480156101a357600080fd5b506101ce7bffffffffffffffffffffffffffffffffffffffffffffffffffffffff19600435166108af565b604080519115158252519081900360200190f35b3480156101ee57600080fd5b506101ce6108e3565b34801561020357600080fd5b5061020c6108ec565b6040805160208082528351818301528351919283929083019185019080838360005b8381101561024657818101518382015260200161022e565b50505050905090810190601f1680156102735780820380516001836020036101000a031916815260200191505b509250505060405180910390f35b34801561028d57600080fd5b50610299600435610983565b60408051600160a060020a039092168252519081900360200190f35b3480156102c157600080fd5b506102d9600160a060020a03600435166024356109b5565b005b3480156102e757600080fd5b506102f3600435610a6b565b60408051918252519081900360200190f35b34801561031157600080fd5b506102f3610ae1565b34801561032657600080fd5b506102d9600160a060020a0360043581169060243516604435610ae7565b34801561035057600080fd5b506102f3600160a060020a0360043516602435610b75565b34801561037457600080fd5b506102d9600160a060020a0360043581169060243516604435610bc3565b34801561039e57600080fd5b506102d9600435610be4565b3480156103b657600080fd5b506102f3600435610c60565b3480156103ce57600080fd5b50610299600435610c95565b3480156103e657600080fd5b506103f2600435610cb9565b60408051921515835260208301919091528051918290030190f35b34801561041957600080fd5b506102f3600160a060020a0360043516610cd6565b34801561043a57600080fd5b506102d9610d09565b34801561044f57600080fd5b506102d9610d73565b34801561046457600080fd5b506102d9600160a060020a0360043516602435610df0565b34801561048857600080fd5b50610299610e9d565b34801561049d57600080fd5b506101ce610eac565b3480156104b257600080fd5b506103f2600435610ebd565b3480156104ca57600080fd5b5061020c610ed1565b3480156104df57600080fd5b506102d9600160a060020a0360043516610f32565b34801561050057600080fd5b506102d9610f52565b34801561051557600080fd5b50604080516020600460443581810135601f81018490048402850184019095528484526102f3948235600160a060020a031694602480359536959460649492019190819084018382808284375050604080516020601f89358b018035918201839004830284018301909452808352979a999881019791965091820194509250829150840183828082843750949750508435955050506020909201359150610f5d9050565b3480156105c557600080fd5b506102d9600160a060020a036004351660243515156110d3565b3480156105eb57600080fd5b506101ce600160a060020a0360043516611157565b34801561060c57600080fd5b50604080516020600460443581810135601f81018490048402850184019095528484526102f394823594602480359536959460649492019190819084018382808284375050604080516020601f89358b018035918201839004830284018301909452808352979a99988101979196509182019450925082915084018382808284375094975050843595505050602090920135915061116a9050565b3480156106b357600080fd5b50604080516020601f6064356004818101359283018490048402850184019095528184526102d994600160a060020a0381358116956024803590921695604435953695608494019181908401838280828437509497506112f69650505050505050565b34801561072257600080fd5b506102f3611318565b34801561073757600080fd5b5061020c60043561131e565b34801561074f57600080fd5b506101ce600160a060020a03600435811690602435166113d3565b34801561077657600080fd5b506102d9600160a060020a0360043516611401565b34801561079757600080fd5b506107a360043561141d565b6040518087600160a060020a0316600160a060020a031681526020018681526020018060200180602001858152602001848152602001838103835287818151815260200191508051906020019080838360005b8381101561080e5781810151838201526020016107f6565b50505050905090810190601f16801561083b5780820380516001836020036101000a031916815260200191505b50838103825286518152865160209182019188019080838360005b8381101561086e578181015183820152602001610856565b50505050905090810190601f16801561089b5780820380516001836020036101000a031916815260200191505b509850505050505050505060405180910390f35b7bffffffffffffffffffffffffffffffffffffffffffffffffffffffff191660009081526020819052604090205460ff1690565b600f5460ff1681565b60098054604080516020601f60026000196101006001881615020190951694909404938401819004810282018101909252828152606093909290918301828280156109785780601f1061094d57610100808354040283529160200191610978565b820191906000526020600020905b81548152906001019060200180831161095b57829003601f168201915b505050505090505b90565b600061098e826115e1565b151561099957600080fd5b50600090815260026020526040902054600160a060020a031690565b60006109c082610c95565b9050600160a060020a0383811690821614156109db57600080fd5b33600160a060020a03821614806109f757506109f781336113d3565b1515610a0257600080fd5b600082815260026020526040808220805473ffffffffffffffffffffffffffffffffffffffff1916600160a060020a0387811691821790925591518593918516917f8c5be1e5ebec7d5bd14f71427d1e84f3dd0314c0f7b2291e5b200ac8c7c3b92591a4505050565b600080610a77836115e1565b1515610acd576040805160e560020a62461bcd02815260206004820152601160248201527f546f6b656e206d75737420657869737473000000000000000000000000000000604482015290519081900360640190fd5b505060009081526011602052604090205490565b60075490565b610af133826115fe565b1515610afc57600080fd5b600160a060020a0382161515610b1157600080fd5b610b1b838261165d565b610b2583826116ce565b610b2f82826117d5565b8082600160a060020a031684600160a060020a03167fddf252ad1be2c89b69c2b068fc378daa952ba7f163c4a11628f55a4df523b3ef60405160405180910390a4505050565b6000610b8083610cd6565b8210610b8b57600080fd5b600160a060020a0383166000908152600560205260409020805483908110610baf57fe5b906000526020600020015490505b92915050565b610bdf83838360206040519081016040528060008152506112f6565b505050565b6000610bee610eac565b610bf85733610c01565b610c0182610c95565b9050610c0d818361181e565b610c1e600e8363ffffffff61186616565b50600082815260116020526040812081815590610c3e6001830182612209565b610c4c600283016000612209565b506000600382018190556004909101555050565b6000610c6a610ae1565b8210610c7557600080fd5b6007805483908110610c8357fe5b90600052602060002001549050919050565b600081815260016020526040812054600160a060020a0316801515610bbd57600080fd5b600080610ccd600e8463ffffffff6118e416565b91509150915091565b6000600160a060020a0382161515610ced57600080fd5b50600160a060020a031660009081526003602052604090205490565b610d11610eac565b1515610d1c57600080fd5b600c54604051600091600160a060020a0316907f8be0079c531659141344cd1fd0a4f28419497f9722a3daafe3b4186f6b6457e0908390a3600c805473ffffffffffffffffffffffffffffffffffffffff19169055565b610d7b610eac565b1515610d8657600080fd5b600f5460ff1615610de1576040805160e560020a62461bcd02815260206004820152601360248201527f4d696e74696e672069732066696e697368656400000000000000000000000000604482015290519081900360640190fd5b600f805460ff19166001179055565b610df8610eac565b1515610e0357600080fd5b81600160a060020a031663a9059cbb610e1a610e9d565b836040518363ffffffff1660e060020a0281526004018083600160a060020a0316600160a060020a0316815260200182815260200192505050602060405180830381600087803b158015610e6d57600080fd5b505af1158015610e81573d6000803e3d6000fd5b505050506040513d6020811015610e9757600080fd5b50505050565b600c54600160a060020a031690565b600c54600160a060020a0316331490565b600080610ccd600e8463ffffffff6118fe16565b600a8054604080516020601f60026000196101006001881615020190951694909404938401819004810282018101909252828152606093909290918301828280156109785780601f1061094d57610100808354040283529160200191610978565b610f3b33611157565b1515610f4657600080fd5b610f4f8161190d565b50565b610f5b33611955565b565b600f546000908190819060ff1615610fbf576040805160e560020a62461bcd02815260206004820152601360248201527f4d696e74696e672069732066696e697368656400000000000000000000000000604482015290519081900360640190fd5b610fc833611157565b1515610fd357600080fd5b601054610fe790600163ffffffff61199d16565b9150610ff389836119b6565b60a0604051908101604052808981526020018881526020018781526020018960001461101f5786611022565b60005b815260200189156110335785611036565b60005b905260008381526011602090815260409091208251815582820151805191926110679260018501929091019061224d565b506040820151805161108391600284019160209091019061224d565b506060820151600382015560809091015160049091015560108290556110b1600e308a63ffffffff611a0516565b90506110c5600e828463ffffffff611aed16565b509098975050505050505050565b600160a060020a0382163314156110e957600080fd5b336000818152600460209081526040808320600160a060020a03871680855290835292819020805460ff1916861515908117909155815190815290519293927f17307eab39ab6107e8899845ad3d59bd9653f200f220920489ca2b5937696c31929181900390910190a35050565b6000610bbd600d8363ffffffff611afc16565b600080600061117833611157565b151561118357600080fd5b61118c896115e1565b15156111e2576040805160e560020a62461bcd02815260206004820152601160248201527f546f6b656e206d75737420657869737473000000000000000000000000000000604482015290519081900360640190fd5b6111eb89610a6b565b9150600088111561124257611206828963ffffffff61199d16565b9150611219600e8a63ffffffff61186616565b5061122c600e308463ffffffff611a0516565b9050611240600e828b63ffffffff611aed16565b505b60a0604051908101604052808381526020018881526020018781526020018360001461126e5786611271565b60005b815260200183156112825785611285565b60005b905260008a81526011602090815260409091208251815582820151805191926112b69260018501929091019061224d565b50604082015180516112d291600284019160209091019061224d565b50606082015160038201556080909101516004909101555096979650505050505050565b611301848484610ae7565b61130d84848484611b33565b1515610e9757600080fd5b60105481565b6060611329826115e1565b151561133457600080fd5b6000828152600b602090815260409182902080548351601f6002600019610100600186161502019093169290920491820184900484028101840190945280845290918301828280156113c75780601f1061139c576101008083540402835291602001916113c7565b820191906000526020600020905b8154815290600101906020018083116113aa57829003601f168201915b50505050509050919050565b600160a060020a03918216600090815260046020908152604080832093909416825291909152205460ff1690565b611409610eac565b151561141457600080fd5b610f4f81611cb5565b6000806060806000806000611431886115e1565b1515611487576040805160e560020a62461bcd02815260206004820152601160248201527f546f6b656e206d75737420657869737473000000000000000000000000000000604482015290519081900360640190fd5b50600087815260116020526040902061149f88610c95565b815460018084018054604080516020600295841615610100026000190190931694909404601f8101839004830285018301909152808452949b50929950909290918301828280156115315780601f1061150657610100808354040283529160200191611531565b820191906000526020600020905b81548152906001019060200180831161151457829003601f168201915b50505060028085018054604080516020601f6000196101006001871615020190941695909504928301859004850281018501909152818152959a5090935091508301828280156115c25780601f10611597576101008083540402835291602001916115c2565b820191906000526020600020905b8154815290600101906020018083116115a557829003601f168201915b5050505050935080600301549250806004015491505091939550919395565b600090815260016020526040902054600160a060020a0316151590565b60008061160a83610c95565b905080600160a060020a031684600160a060020a03161480611645575083600160a060020a031661163a84610983565b600160a060020a0316145b80611655575061165581856113d3565b949350505050565b81600160a060020a031661167082610c95565b600160a060020a03161461168357600080fd5b600081815260026020526040902054600160a060020a0316156116ca576000818152600260205260409020805473ffffffffffffffffffffffffffffffffffffffff191690555b5050565b60008060006116dd8585611d33565b600084815260066020908152604080832054600160a060020a038916845260059092529091205490935061171890600163ffffffff611dc916565b600160a060020a03861660009081526005602052604090208054919350908390811061174057fe5b90600052602060002001549050806005600087600160a060020a0316600160a060020a031681526020019081526020016000208481548110151561178057fe5b6000918252602080832090910192909255600160a060020a03871681526005909152604090208054906117b79060001983016122cb565b50600093845260066020526040808520859055908452909220555050565b60006117e18383611de0565b50600160a060020a039091166000908152600560209081526040808320805460018101825590845282842081018590559383526006909152902055565b6118288282611e70565b6000818152600b602052604090205460026000196101006001841615020190911604156116ca576000818152600b602052604081206116ca91612209565b600081158061187c575061187a8383611f2c565b155b1561188957506000610bbd565b60008281526020848152604080832083805290915280822054600180845291909220546118ba928692909190611fa4565b50600081815260209283526040808220828052909352828120819055600181529182209190915590565b6000806118f384846001611fd5565b915091509250929050565b6000806118f384846000611fd5565b61191e600d8263ffffffff61201b16565b604051600160a060020a038216907f6ae172837ea30b801fbfcdd4108aa1d5bf8ff775444fd70256b44e6bf3dfc3f690600090a250565b611966600d8263ffffffff61206916565b604051600160a060020a038216907fe94479a9f7e1952cc78f2d6baab678adc1b772d936c6583def489e524cb6669290600090a250565b6000828201838110156119af57600080fd5b9392505050565b6119c082826120b5565b600780546000838152600860205260408120829055600182018355919091527fa66cc928b5edb82af9bd49922954155ab7b0942694bea4ce44661d9a8736c688015550565b6000806000611a1386612110565b1515611a225760009250611ae4565b611a2f8660006001611fd5565b90925090505b8015801590611abd57506001151585600160a060020a0316630ff4c916836040518263ffffffff1660e060020a02815260040180828152602001915050602060405180830381600087803b158015611a8c57600080fd5b505af1158015611aa0573d6000803e3d6000fd5b505050506040513d6020811015611ab657600080fd5b5051851014155b15611ae05760009081526020868152604080832060018452909152902054611a35565b8092505b50509392505050565b60006116558484846000612148565b6000600160a060020a0382161515611b1357600080fd5b50600160a060020a03166000908152602091909152604090205460ff1690565b600080611b4885600160a060020a03166121b1565b1515611b575760019150611cac565b6040517f150b7a020000000000000000000000000000000000000000000000000000000081523360048201818152600160a060020a03898116602485015260448401889052608060648501908152875160848601528751918a169463150b7a0294938c938b938b93909160a490910190602085019080838360005b83811015611bea578181015183820152602001611bd2565b50505050905090810190601f168015611c175780820380516001836020036101000a031916815260200191505b5095505050505050602060405180830381600087803b158015611c3957600080fd5b505af1158015611c4d573d6000803e3d6000fd5b505050506040513d6020811015611c6357600080fd5b50517bffffffffffffffffffffffffffffffffffffffffffffffffffffffff1981167f150b7a020000000000000000000000000000000000000000000000000000000014925090505b50949350505050565b600160a060020a0381161515611cca57600080fd5b600c54604051600160a060020a038084169216907f8be0079c531659141344cd1fd0a4f28419497f9722a3daafe3b4186f6b6457e090600090a3600c805473ffffffffffffffffffffffffffffffffffffffff1916600160a060020a0392909216919091179055565b81600160a060020a0316611d4682610c95565b600160a060020a031614611d5957600080fd5b600160a060020a038216600090815260036020526040902054611d8390600163ffffffff611dc916565b600160a060020a03909216600090815260036020908152604080832094909455918152600190915220805473ffffffffffffffffffffffffffffffffffffffff19169055565b60008083831115611dd957600080fd5b5050900390565b600081815260016020526040902054600160a060020a031615611e0257600080fd5b6000818152600160208181526040808420805473ffffffffffffffffffffffffffffffffffffffff1916600160a060020a0388169081179091558452600390915290912054611e509161199d565b600160a060020a0390921660009081526003602052604090209190915550565b6000806000611e7f85856121b9565b600084815260086020526040902054600754909350611ea590600163ffffffff611dc916565b9150600782815481101515611eb657fe5b9060005260206000200154905080600784815481101515611ed357fe5b60009182526020822001919091556007805484908110611eef57fe5b6000918252602090912001556007805490611f0e9060001983016122cb565b50600093845260086020526040808520859055908452909220555050565b600081815260208381526040808320838052909152812054158015611f67575060008281526020848152604080832060018452909152902054155b15611f9c5760008080526020848152604080832060018452909152902054821415611f9457506001610bbd565b506000610bbd565b506001610bbd565b6000828152602085815260408083209315808452938252808320869055948252948552838120911581529352912055565b600080611fe28585611f2c565b1515611ff357506000905080612013565b505060008281526020848152604080832084151584529091529020546001905b935093915050565b600160a060020a038116151561203057600080fd5b61203a8282611afc565b1561204457600080fd5b600160a060020a0316600090815260209190915260409020805460ff19166001179055565b600160a060020a038116151561207e57600080fd5b6120888282611afc565b151561209357600080fd5b600160a060020a0316600090815260209190915260409020805460ff19169055565b600160a060020a03821615156120ca57600080fd5b6120d482826117d5565b6040518190600160a060020a038416906000907fddf252ad1be2c89b69c2b068fc378daa952ba7f163c4a11628f55a4df523b3ef908290a45050565b6000806000806121238560006001611fd5565b90935091505b81156116555761213b85836001611fd5565b9093509150600101612129565b6000806121558685611f2c565b15801561216757506121678686611f2c565b156121a85750600084815260208681526040808320851515845290915290205461219386868686611fa4565b61219f86858386611fa4565b60019150611cac565b60009150611cac565b6000903b1190565b6121c3828261165d565b6121cd82826116ce565b6040518190600090600160a060020a038516907fddf252ad1be2c89b69c2b068fc378daa952ba7f163c4a11628f55a4df523b3ef908390a45050565b50805460018160011615610100020316600290046000825580601f1061222f5750610f4f565b601f016020900490600052602060002090810190610f4f91906122eb565b828054600181600116156101000203166002900490600052602060002090601f016020900481019282601f1061228e57805160ff19168380011785556122bb565b828001600101855582156122bb579182015b828111156122bb5782518255916020019190600101906122a0565b506122c79291506122eb565b5090565b815481835581811115610bdf57600083815260209020610bdf9181019083015b61098091905b808211156122c757600081556001016122f15600a165627a7a72305820bdc096ff58fedce17deabd5d8d82bf9ca395f6d79e050cf8741647ca08092d190029",
  "source": "pragma solidity ^0.4.24;\n\nimport \"openzeppelin-solidity/contracts/access/roles/MinterRole.sol\";\nimport \"openzeppelin-solidity/contracts/token/ERC721/ERC721Full.sol\";\nimport \"eth-token-recover/contracts/TokenRecover.sol\";\nimport \"solidity-linked-list/contracts/StructuredLinkedList.sol\";\n\ncontract WallOfChainToken is ERC721Full, TokenRecover, MinterRole {\n  using StructuredLinkedList for StructuredLinkedList.List;\n\n  StructuredLinkedList.List list;\n\n  struct WallStructure {\n    uint256 value;\n    string firstName;\n    string lastName;\n    uint256 pattern;\n    uint256 icon;\n  }\n\n  bool public mintingFinished = false;\n\n  uint256 public progressiveId = 0;\n\n  // Mapping from token ID to the structures\n  mapping(uint256 => WallStructure) structureIndex;\n\n  modifier canGenerate() {\n    require(\n      !mintingFinished,\n      \"Minting is finished\"\n    );\n    _;\n  }\n\n  constructor(string _name, string _symbol) public\n  ERC721Full(_name, _symbol)\n  {}\n\n  /**\n   * @dev Function to stop minting new tokens.\n   */\n  function finishMinting() public onlyOwner canGenerate {\n    mintingFinished = true;\n  }\n\n  function newToken(\n    address _beneficiary,\n    uint256 _value,\n    string _firstName,\n    string _lastName,\n    uint256 _pattern,\n    uint256 _icon\n  )\n    public\n    canGenerate\n    onlyMinter\n    returns (uint256)\n  {\n    uint256 tokenId = progressiveId.add(1);\n    _mint(_beneficiary, tokenId);\n    structureIndex[tokenId] = WallStructure(\n      _value,\n      _firstName,\n      _lastName,\n      _value == 0 ? 0 : _pattern,\n      _value == 0 ? 0 : _icon\n    );\n    progressiveId = tokenId;\n\n    uint256 position = list.getSortedSpot(StructureInterface(this), _value);\n    list.insertBefore(position, tokenId);\n\n    return tokenId;\n  }\n\n  function editToken (\n    uint256 _tokenId,\n    uint256 _value,\n    string _firstName,\n    string _lastName,\n    uint256 _pattern,\n    uint256 _icon\n  )\n    public\n    onlyMinter\n    returns (uint256)\n  {\n    require(\n      _exists(_tokenId),\n      \"Token must exists\"\n    );\n\n    uint256 value = getValue(_tokenId);\n\n    if (_value > 0) {\n      value = value.add(_value); // add the new value sent\n\n      // reorder the list\n      list.remove(_tokenId);\n      uint256 position = list.getSortedSpot(StructureInterface(this), value);\n      list.insertBefore(position, _tokenId);\n    }\n\n    structureIndex[_tokenId] = WallStructure(\n      value,\n      _firstName,\n      _lastName,\n      value == 0 ? 0 : _pattern,\n      value == 0 ? 0 : _icon\n    );\n\n    return _tokenId;\n  }\n\n  function getWall (\n    uint256 _tokenId\n  )\n    public\n    view\n    returns (\n      address tokenOwner,\n      uint256 value,\n      string firstName,\n      string lastName,\n      uint256 pattern,\n      uint256 icon\n    )\n  {\n    require(\n      _exists(_tokenId),\n      \"Token must exists\"\n    );\n\n    WallStructure storage wall = structureIndex[_tokenId];\n\n    tokenOwner = ownerOf(_tokenId);\n\n    value = wall.value;\n    firstName = wall.firstName;\n    lastName = wall.lastName;\n    pattern = wall.pattern;\n    icon = wall.icon;\n  }\n\n  function getValue (uint256 _tokenId) public view returns (uint256) {\n    require(\n      _exists(_tokenId),\n      \"Token must exists\"\n    );\n    WallStructure storage wall = structureIndex[_tokenId];\n    return wall.value;\n  }\n\n  function getNextNode(uint256 _tokenId) public view returns (bool, uint256) {\n    return list.getNextNode(_tokenId);\n  }\n\n  function getPreviousNode(\n    uint256 _tokenId\n  )\n    public\n    view\n    returns (bool, uint256)\n  {\n    return list.getPreviousNode(_tokenId);\n  }\n\n  /**\n   * @dev Only contract owner or token owner can burn\n   */\n  function burn(uint256 _tokenId) public {\n    address tokenOwner = isOwner() ? ownerOf(_tokenId) : msg.sender;\n    super._burn(tokenOwner, _tokenId);\n    list.remove(_tokenId);\n    delete structureIndex[_tokenId];\n  }\n}\n",
  "sourcePath": "/Users/vittominacori/Projects/bc1tech/wallofchain/wallofchain-smartcontracts/contracts/WallOfChainToken.sol",
  "compiler": {
    "name": "solc",
    "version": "0.4.24+commit.e67f0147.Emscripten.clang"
  },
  "schemaVersion": "2.0.1",
  "updatedAt": "2019-01-25T11:18:14.888Z"
}