{
  "contractName": "WallOfChainMarket",
  "abi": [
    {
      "constant": true,
      "inputs": [],
      "name": "weiRaised",
      "outputs": [
        {
          "name": "",
          "type": "uint256"
        }
      ],
      "payable": false,
      "stateMutability": "view",
      "type": "function"
    },
    {
      "constant": true,
      "inputs": [],
      "name": "wallet",
      "outputs": [
        {
          "name": "",
          "type": "address"
        }
      ],
      "payable": false,
      "stateMutability": "view",
      "type": "function"
    },
    {
      "constant": true,
      "inputs": [],
      "name": "token",
      "outputs": [
        {
          "name": "",
          "type": "address"
        }
      ],
      "payable": false,
      "stateMutability": "view",
      "type": "function"
    },
    {
      "inputs": [
        {
          "name": "_wallet",
          "type": "address"
        },
        {
          "name": "_token",
          "type": "address"
        }
      ],
      "payable": false,
      "stateMutability": "nonpayable",
      "type": "constructor"
    },
    {
      "anonymous": false,
      "inputs": [
        {
          "indexed": true,
          "name": "purchaser",
          "type": "address"
        },
        {
          "indexed": true,
          "name": "beneficiary",
          "type": "address"
        },
        {
          "indexed": false,
          "name": "value",
          "type": "uint256"
        },
        {
          "indexed": false,
          "name": "tokenId",
          "type": "uint256"
        }
      ],
      "name": "TokenPurchase",
      "type": "event"
    },
    {
      "constant": false,
      "inputs": [
        {
          "name": "beneficiary",
          "type": "address"
        },
        {
          "name": "_firstName",
          "type": "string"
        },
        {
          "name": "_lastName",
          "type": "string"
        },
        {
          "name": "_pattern",
          "type": "uint256"
        },
        {
          "name": "_icon",
          "type": "uint256"
        }
      ],
      "name": "buyToken",
      "outputs": [],
      "payable": true,
      "stateMutability": "payable",
      "type": "function"
    }
  ],
  "bytecode": "0x608060405234801561001057600080fd5b50604051604080610637833981016040528051602090910151600160a060020a03821615156100a057604080517f08c379a000000000000000000000000000000000000000000000000000000000815260206004820181905260248201527f57616c6c65742063616e277420626520746865207a65726f2061646472657373604482015290519081900360640190fd5b600160a060020a038116151561011757604080517f08c379a000000000000000000000000000000000000000000000000000000000815260206004820152601f60248201527f546f6b656e2063616e277420626520746865207a65726f206164647265737300604482015290519081900360640190fd5b60018054600160a060020a03938416600160a060020a031991821617909155600080549290931691161790556104e5806101526000396000f3006080604052600436106100615763ffffffff7c01000000000000000000000000000000000000000000000000000000006000350416634042b66f8114610066578063521eb2731461008d5780637d2d1dc9146100be578063fc0c546a14610161575b600080fd5b34801561007257600080fd5b5061007b610176565b60408051918252519081900360200190f35b34801561009957600080fd5b506100a261017c565b60408051600160a060020a039092168252519081900360200190f35b60408051602060046024803582810135601f810185900485028601850190965285855261015f958335600160a060020a031695369560449491939091019190819084018382808284375050604080516020601f89358b018035918201839004830284018301909452808352979a99988101979196509182019450925082915084018382808284375094975050843595505050602090920135915061018b9050565b005b34801561016d57600080fd5b506100a2610214565b60025481565b600154600160a060020a031681565b34600061019787610223565b6002546101aa908363ffffffff6102c316565b6002556101bb8783888888886102d6565b60408051848152602081018390528151929350600160a060020a038a169233927f623b3804fa71d67900d064613da8f94b9617215ee90799290593e1745087ad18928290030190a361020b610480565b50505050505050565b600054600160a060020a031681565b600160a060020a03811615156102c057604080517f08c379a000000000000000000000000000000000000000000000000000000000815260206004820152602560248201527f42656e65666963696172792063616e277420626520746865207a65726f20616460448201527f6472657373000000000000000000000000000000000000000000000000000000606482015290519081900360840190fd5b50565b818101828110156102d057fe5b92915050565b60008060009054906101000a9004600160a060020a0316600160a060020a0316639c7706848888888888886040518763ffffffff167c01000000000000000000000000000000000000000000000000000000000281526004018087600160a060020a0316600160a060020a031681526020018681526020018060200180602001858152602001848152602001838103835287818151815260200191508051906020019080838360005b8381101561039757818101518382015260200161037f565b50505050905090810190601f1680156103c45780820380516001836020036101000a031916815260200191505b50838103825286518152865160209182019188019080838360005b838110156103f75781810151838201526020016103df565b50505050905090810190601f1680156104245780820380516001836020036101000a031916815260200191505b5098505050505050505050602060405180830381600087803b15801561044957600080fd5b505af115801561045d573d6000803e3d6000fd5b505050506040513d602081101561047357600080fd5b5051979650505050505050565b600154604051600160a060020a03909116903480156108fc02916000818181858888f193505050501580156102c0573d6000803e3d6000fd00a165627a7a723058202d1f54c313e4a63a304ae5d99711c1427eadeb7da31eec74e919b84fe265aabb0029",
  "source": "pragma solidity ^0.4.24;\n\nimport \"openzeppelin-solidity/contracts/math/SafeMath.sol\";\nimport \"./WallOfChainToken.sol\";\n\n\ncontract WallOfChainMarket {\n  using SafeMath for uint256;\n\n  // The token being sold\n  WallOfChainToken public token;\n\n  // Address where funds are collected\n  address public wallet;\n\n  // Amount of wei raised\n  uint256 public weiRaised;\n\n  /**\n   * Event for token purchase logging\n   * @param purchaser who paid for the tokens\n   * @param beneficiary who got the tokens\n   * @param value weis paid for purchase\n   * @param tokenId the token id purchased\n   */\n  event TokenPurchase(\n    address indexed purchaser,\n    address indexed beneficiary,\n    uint256 value,\n    uint256 tokenId\n  );\n\n  /**\n   * @param _wallet Address where collected funds will be forwarded to\n   * @param _token Address of the token being sold\n   */\n  constructor(address _wallet, WallOfChainToken _token) public {\n    require(\n      _wallet != address(0),\n      \"Wallet can't be the zero address\"\n    );\n    require(\n      _token != address(0),\n      \"Token can't be the zero address\"\n    );\n\n    wallet = _wallet;\n    token = _token;\n  }\n\n  /**\n   * @dev low level token purchase ***DO NOT OVERRIDE***\n   */\n  function buyToken(\n    address beneficiary,\n    string _firstName,\n    string _lastName,\n    uint256 _pattern,\n    uint256 _icon\n  )\n  public\n  payable\n  {\n    uint256 weiAmount = msg.value;\n\n    _preValidatePurchase(beneficiary);\n\n    // update state\n    weiRaised = weiRaised.add(weiAmount);\n\n    uint256 lastTokenId = _processPurchase(\n      beneficiary,\n      weiAmount,\n      _firstName,\n      _lastName,\n      _pattern,\n      _icon\n    );\n\n    emit TokenPurchase(\n      msg.sender,\n      beneficiary,\n      weiAmount,\n      lastTokenId\n    );\n\n    _forwardFunds();\n  }\n\n  // -----------------------------------------\n  // Internal interface (extensible)\n  // -----------------------------------------\n\n  /**\n   * @dev Validation of an incoming purchase. Use require statements to revert state when conditions are not met. Use super to concatenate validations.\n   * @param _beneficiary Address performing the token purchase\n   */\n  function _preValidatePurchase(\n    address _beneficiary\n  )\n  internal\n  pure\n  {\n    require(\n      _beneficiary != address(0),\n      \"Beneficiary can't be the zero address\"\n    );\n  }\n\n  /**\n   * @dev Executed when a purchase has been validated and is ready to be executed.\n   */\n  function _processPurchase(\n    address _beneficiary,\n    uint256 _weiAmount,\n    string _firstName,\n    string _lastName,\n    uint256 _pattern,\n    uint256 _icon\n  )\n  internal\n  returns (uint256)\n  {\n    return token.newToken(\n      _beneficiary,\n      _weiAmount,\n      _firstName,\n      _lastName,\n      _pattern,\n      _icon\n    );\n  }\n\n  /**\n   * @dev Determines how ETH is stored/forwarded on purchases.\n   */\n  function _forwardFunds() internal {\n    wallet.transfer(msg.value);\n  }\n}\n",
  "sourcePath": "/Users/vittominacori/Projects/paneedesign/wallofchain/wallofchain-smartcontracts/contracts/WallOfChainMarket.sol",
  "compiler": {
    "name": "solc",
    "version": "0.4.24+commit.e67f0147.Emscripten.clang"
  },
  "schemaVersion": "2.0.1",
  "updatedAt": "2018-08-22T10:15:08.286Z"
}