{
  "contractName": "WallOfChainToken",
  "abi": [
    {
      "constant": true,
      "inputs": [
        {
          "name": "_interfaceId",
          "type": "bytes4"
        }
      ],
      "name": "supportsInterface",
      "outputs": [
        {
          "name": "",
          "type": "bool"
        }
      ],
      "payable": false,
      "stateMutability": "view",
      "type": "function"
    },
    {
      "constant": true,
      "inputs": [],
      "name": "mintingFinished",
      "outputs": [
        {
          "name": "",
          "type": "bool"
        }
      ],
      "payable": false,
      "stateMutability": "view",
      "type": "function"
    },
    {
      "constant": true,
      "inputs": [],
      "name": "name",
      "outputs": [
        {
          "name": "",
          "type": "string"
        }
      ],
      "payable": false,
      "stateMutability": "view",
      "type": "function"
    },
    {
      "constant": true,
      "inputs": [
        {
          "name": "_tokenId",
          "type": "uint256"
        }
      ],
      "name": "getApproved",
      "outputs": [
        {
          "name": "",
          "type": "address"
        }
      ],
      "payable": false,
      "stateMutability": "view",
      "type": "function"
    },
    {
      "constant": false,
      "inputs": [
        {
          "name": "_to",
          "type": "address"
        },
        {
          "name": "_tokenId",
          "type": "uint256"
        }
      ],
      "name": "approve",
      "outputs": [],
      "payable": false,
      "stateMutability": "nonpayable",
      "type": "function"
    },
    {
      "constant": true,
      "inputs": [
        {
          "name": "_operator",
          "type": "address"
        },
        {
          "name": "_role",
          "type": "string"
        }
      ],
      "name": "checkRole",
      "outputs": [],
      "payable": false,
      "stateMutability": "view",
      "type": "function"
    },
    {
      "constant": true,
      "inputs": [],
      "name": "totalSupply",
      "outputs": [
        {
          "name": "",
          "type": "uint256"
        }
      ],
      "payable": false,
      "stateMutability": "view",
      "type": "function"
    },
    {
      "constant": true,
      "inputs": [],
      "name": "InterfaceId_ERC165",
      "outputs": [
        {
          "name": "",
          "type": "bytes4"
        }
      ],
      "payable": false,
      "stateMutability": "view",
      "type": "function"
    },
    {
      "constant": true,
      "inputs": [
        {
          "name": "_operator",
          "type": "address"
        },
        {
          "name": "_role",
          "type": "string"
        }
      ],
      "name": "hasRole",
      "outputs": [
        {
          "name": "",
          "type": "bool"
        }
      ],
      "payable": false,
      "stateMutability": "view",
      "type": "function"
    },
    {
      "constant": false,
      "inputs": [
        {
          "name": "_from",
          "type": "address"
        },
        {
          "name": "_to",
          "type": "address"
        },
        {
          "name": "_tokenId",
          "type": "uint256"
        }
      ],
      "name": "transferFrom",
      "outputs": [],
      "payable": false,
      "stateMutability": "nonpayable",
      "type": "function"
    },
    {
      "constant": true,
      "inputs": [
        {
          "name": "_owner",
          "type": "address"
        },
        {
          "name": "_index",
          "type": "uint256"
        }
      ],
      "name": "tokenOfOwnerByIndex",
      "outputs": [
        {
          "name": "",
          "type": "uint256"
        }
      ],
      "payable": false,
      "stateMutability": "view",
      "type": "function"
    },
    {
      "constant": false,
      "inputs": [
        {
          "name": "minter",
          "type": "address"
        }
      ],
      "name": "removeMinter",
      "outputs": [],
      "payable": false,
      "stateMutability": "nonpayable",
      "type": "function"
    },
    {
      "constant": false,
      "inputs": [
        {
          "name": "_from",
          "type": "address"
        },
        {
          "name": "_to",
          "type": "address"
        },
        {
          "name": "_tokenId",
          "type": "uint256"
        }
      ],
      "name": "safeTransferFrom",
      "outputs": [],
      "payable": false,
      "stateMutability": "nonpayable",
      "type": "function"
    },
    {
      "constant": true,
      "inputs": [
        {
          "name": "_tokenId",
          "type": "uint256"
        }
      ],
      "name": "exists",
      "outputs": [
        {
          "name": "",
          "type": "bool"
        }
      ],
      "payable": false,
      "stateMutability": "view",
      "type": "function"
    },
    {
      "constant": true,
      "inputs": [
        {
          "name": "_index",
          "type": "uint256"
        }
      ],
      "name": "tokenByIndex",
      "outputs": [
        {
          "name": "",
          "type": "uint256"
        }
      ],
      "payable": false,
      "stateMutability": "view",
      "type": "function"
    },
    {
      "constant": true,
      "inputs": [
        {
          "name": "_tokenId",
          "type": "uint256"
        }
      ],
      "name": "ownerOf",
      "outputs": [
        {
          "name": "",
          "type": "address"
        }
      ],
      "payable": false,
      "stateMutability": "view",
      "type": "function"
    },
    {
      "constant": true,
      "inputs": [
        {
          "name": "_owner",
          "type": "address"
        }
      ],
      "name": "balanceOf",
      "outputs": [
        {
          "name": "",
          "type": "uint256"
        }
      ],
      "payable": false,
      "stateMutability": "view",
      "type": "function"
    },
    {
      "constant": false,
      "inputs": [],
      "name": "renounceOwnership",
      "outputs": [],
      "payable": false,
      "stateMutability": "nonpayable",
      "type": "function"
    },
    {
      "constant": false,
      "inputs": [],
      "name": "finishMinting",
      "outputs": [
        {
          "name": "",
          "type": "bool"
        }
      ],
      "payable": false,
      "stateMutability": "nonpayable",
      "type": "function"
    },
    {
      "constant": true,
      "inputs": [],
      "name": "owner",
      "outputs": [
        {
          "name": "",
          "type": "address"
        }
      ],
      "payable": false,
      "stateMutability": "view",
      "type": "function"
    },
    {
      "constant": true,
      "inputs": [],
      "name": "ROLE_MINTER",
      "outputs": [
        {
          "name": "",
          "type": "string"
        }
      ],
      "payable": false,
      "stateMutability": "view",
      "type": "function"
    },
    {
      "constant": true,
      "inputs": [],
      "name": "symbol",
      "outputs": [
        {
          "name": "",
          "type": "string"
        }
      ],
      "payable": false,
      "stateMutability": "view",
      "type": "function"
    },
    {
      "constant": false,
      "inputs": [
        {
          "name": "minter",
          "type": "address"
        }
      ],
      "name": "addMinter",
      "outputs": [],
      "payable": false,
      "stateMutability": "nonpayable",
      "type": "function"
    },
    {
      "constant": false,
      "inputs": [
        {
          "name": "_to",
          "type": "address"
        },
        {
          "name": "_approved",
          "type": "bool"
        }
      ],
      "name": "setApprovalForAll",
      "outputs": [],
      "payable": false,
      "stateMutability": "nonpayable",
      "type": "function"
    },
    {
      "constant": false,
      "inputs": [
        {
          "name": "_from",
          "type": "address"
        },
        {
          "name": "_to",
          "type": "address"
        },
        {
          "name": "_tokenId",
          "type": "uint256"
        },
        {
          "name": "_data",
          "type": "bytes"
        }
      ],
      "name": "safeTransferFrom",
      "outputs": [],
      "payable": false,
      "stateMutability": "nonpayable",
      "type": "function"
    },
    {
      "constant": true,
      "inputs": [],
      "name": "progressiveId",
      "outputs": [
        {
          "name": "",
          "type": "uint256"
        }
      ],
      "payable": false,
      "stateMutability": "view",
      "type": "function"
    },
    {
      "constant": true,
      "inputs": [
        {
          "name": "_tokenId",
          "type": "uint256"
        }
      ],
      "name": "tokenURI",
      "outputs": [
        {
          "name": "",
          "type": "string"
        }
      ],
      "payable": false,
      "stateMutability": "view",
      "type": "function"
    },
    {
      "constant": true,
      "inputs": [
        {
          "name": "_owner",
          "type": "address"
        },
        {
          "name": "_operator",
          "type": "address"
        }
      ],
      "name": "isApprovedForAll",
      "outputs": [
        {
          "name": "",
          "type": "bool"
        }
      ],
      "payable": false,
      "stateMutability": "view",
      "type": "function"
    },
    {
      "constant": false,
      "inputs": [
        {
          "name": "_newOwner",
          "type": "address"
        }
      ],
      "name": "transferOwnership",
      "outputs": [],
      "payable": false,
      "stateMutability": "nonpayable",
      "type": "function"
    },
    {
      "inputs": [
        {
          "name": "_name",
          "type": "string"
        },
        {
          "name": "_symbol",
          "type": "string"
        }
      ],
      "payable": false,
      "stateMutability": "nonpayable",
      "type": "constructor"
    },
    {
      "anonymous": false,
      "inputs": [],
      "name": "MintFinished",
      "type": "event"
    },
    {
      "anonymous": false,
      "inputs": [
        {
          "indexed": true,
          "name": "operator",
          "type": "address"
        },
        {
          "indexed": false,
          "name": "role",
          "type": "string"
        }
      ],
      "name": "RoleAdded",
      "type": "event"
    },
    {
      "anonymous": false,
      "inputs": [
        {
          "indexed": true,
          "name": "operator",
          "type": "address"
        },
        {
          "indexed": false,
          "name": "role",
          "type": "string"
        }
      ],
      "name": "RoleRemoved",
      "type": "event"
    },
    {
      "anonymous": false,
      "inputs": [
        {
          "indexed": true,
          "name": "previousOwner",
          "type": "address"
        }
      ],
      "name": "OwnershipRenounced",
      "type": "event"
    },
    {
      "anonymous": false,
      "inputs": [
        {
          "indexed": true,
          "name": "previousOwner",
          "type": "address"
        },
        {
          "indexed": true,
          "name": "newOwner",
          "type": "address"
        }
      ],
      "name": "OwnershipTransferred",
      "type": "event"
    },
    {
      "anonymous": false,
      "inputs": [
        {
          "indexed": true,
          "name": "_from",
          "type": "address"
        },
        {
          "indexed": true,
          "name": "_to",
          "type": "address"
        },
        {
          "indexed": true,
          "name": "_tokenId",
          "type": "uint256"
        }
      ],
      "name": "Transfer",
      "type": "event"
    },
    {
      "anonymous": false,
      "inputs": [
        {
          "indexed": true,
          "name": "_owner",
          "type": "address"
        },
        {
          "indexed": true,
          "name": "_approved",
          "type": "address"
        },
        {
          "indexed": true,
          "name": "_tokenId",
          "type": "uint256"
        }
      ],
      "name": "Approval",
      "type": "event"
    },
    {
      "anonymous": false,
      "inputs": [
        {
          "indexed": true,
          "name": "_owner",
          "type": "address"
        },
        {
          "indexed": true,
          "name": "_operator",
          "type": "address"
        },
        {
          "indexed": false,
          "name": "_approved",
          "type": "bool"
        }
      ],
      "name": "ApprovalForAll",
      "type": "event"
    },
    {
      "constant": false,
      "inputs": [
        {
          "name": "_beneficiary",
          "type": "address"
        },
        {
          "name": "_value",
          "type": "uint256"
        },
        {
          "name": "_firstName",
          "type": "string"
        },
        {
          "name": "_lastName",
          "type": "string"
        },
        {
          "name": "_pattern",
          "type": "uint256"
        },
        {
          "name": "_icon",
          "type": "uint256"
        }
      ],
      "name": "newToken",
      "outputs": [
        {
          "name": "",
          "type": "uint256"
        }
      ],
      "payable": false,
      "stateMutability": "nonpayable",
      "type": "function"
    },
    {
      "constant": false,
      "inputs": [
        {
          "name": "_tokenId",
          "type": "uint256"
        },
        {
          "name": "_value",
          "type": "uint256"
        },
        {
          "name": "_firstName",
          "type": "string"
        },
        {
          "name": "_lastName",
          "type": "string"
        },
        {
          "name": "_pattern",
          "type": "uint256"
        },
        {
          "name": "_icon",
          "type": "uint256"
        }
      ],
      "name": "editToken",
      "outputs": [
        {
          "name": "",
          "type": "uint256"
        }
      ],
      "payable": false,
      "stateMutability": "nonpayable",
      "type": "function"
    },
    {
      "constant": true,
      "inputs": [
        {
          "name": "_tokenId",
          "type": "uint256"
        }
      ],
      "name": "getWall",
      "outputs": [
        {
          "name": "tokenOwner",
          "type": "address"
        },
        {
          "name": "value",
          "type": "uint256"
        },
        {
          "name": "firstName",
          "type": "string"
        },
        {
          "name": "lastName",
          "type": "string"
        },
        {
          "name": "pattern",
          "type": "uint256"
        },
        {
          "name": "icon",
          "type": "uint256"
        }
      ],
      "payable": false,
      "stateMutability": "view",
      "type": "function"
    },
    {
      "constant": true,
      "inputs": [
        {
          "name": "_tokenId",
          "type": "uint256"
        }
      ],
      "name": "getValue",
      "outputs": [
        {
          "name": "",
          "type": "uint256"
        }
      ],
      "payable": false,
      "stateMutability": "view",
      "type": "function"
    },
    {
      "constant": true,
      "inputs": [
        {
          "name": "_tokenId",
          "type": "uint256"
        }
      ],
      "name": "getNextNode",
      "outputs": [
        {
          "name": "",
          "type": "bool"
        },
        {
          "name": "",
          "type": "uint256"
        }
      ],
      "payable": false,
      "stateMutability": "view",
      "type": "function"
    },
    {
      "constant": true,
      "inputs": [
        {
          "name": "_tokenId",
          "type": "uint256"
        }
      ],
      "name": "getPreviousNode",
      "outputs": [
        {
          "name": "",
          "type": "bool"
        },
        {
          "name": "",
          "type": "uint256"
        }
      ],
      "payable": false,
      "stateMutability": "view",
      "type": "function"
    },
    {
      "constant": false,
      "inputs": [
        {
          "name": "_tokenId",
          "type": "uint256"
        }
      ],
      "name": "burn",
      "outputs": [],
      "payable": false,
      "stateMutability": "nonpayable",
      "type": "function"
    }
  ],
  "bytecode": "0x6080604052600e805460ff1916905560006010553480156200002057600080fd5b50604051620029163803806200291683398101604052805160208201519082019101818181816200007a7f01ffc9a70000000000000000000000000000000000000000000000000000000064010000000062000195810204565b620000ae7f80ac58cd0000000000000000000000000000000000000000000000000000000064010000000062000195810204565b620000e27f4f558e790000000000000000000000000000000000000000000000000000000064010000000062000195810204565b8151620000f790600590602085019062000202565b5080516200010d90600690602084019062000202565b50620001427f780e9d630000000000000000000000000000000000000000000000000000000064010000000062000195810204565b620001767f5b5e139f0000000000000000000000000000000000000000000000000000000064010000000062000195810204565b5050600c8054600160a060020a0319163317905550620002a792505050565b7fffffffff000000000000000000000000000000000000000000000000000000008082161415620001c557600080fd5b7fffffffff00000000000000000000000000000000000000000000000000000000166000908152602081905260409020805460ff19166001179055565b828054600181600116156101000203166002900490600052602060002090601f016020900481019282601f106200024557805160ff191683800117855562000275565b8280016001018555821562000275579182015b828111156200027557825182559160200191906001019062000258565b506200028392915062000287565b5090565b620002a491905b808211156200028357600081556001016200028e565b90565b61265f80620002b76000396000f3006080604052600436106101c15763ffffffff7c010000000000000000000000000000000000000000000000000000000060003504166301ffc9a781146101c657806305d2035b146101fc57806306fdde0314610211578063081812fc1461029b578063095ea7b3146102cf5780630988ca8c146102f55780630ff4c9161461035c57806318160ddd1461038657806319fa8f501461039b578063217fe6c6146103cd57806323b872dd146104345780632f745c591461045e5780633092afd51461048257806342842e0e146104a357806342966c68146104cd5780634f558e79146104e55780634f6ccce7146104fd5780636352211e146105155780636d902bfb1461052d57806370a0823114610560578063715018a6146105815780637d64bcb4146105965780638da5cb5b146105ab57806392afc33a146105c057806392c2cd8c146105d557806395d89b41146105ed578063983b2d56146106025780639c77068414610623578063a22cb465146106d3578063b40bb85d146106f9578063b88d4fde146107a0578063c3b909d71461080f578063c87b56dd14610824578063e985e9c51461083c578063f2fde38b14610863578063ff91e48914610884575b600080fd5b3480156101d257600080fd5b506101e8600160e060020a0319600435166109a8565b604080519115158252519081900360200190f35b34801561020857600080fd5b506101e86109c7565b34801561021d57600080fd5b506102266109d0565b6040805160208082528351818301528351919283929083019185019080838360005b83811015610260578181015183820152602001610248565b50505050905090810190601f16801561028d5780820380516001836020036101000a031916815260200191505b509250505060405180910390f35b3480156102a757600080fd5b506102b3600435610a67565b60408051600160a060020a039092168252519081900360200190f35b3480156102db57600080fd5b506102f3600160a060020a0360043516602435610a82565b005b34801561030157600080fd5b5060408051602060046024803582810135601f81018590048502860185019096528585526102f3958335600160a060020a0316953695604494919390910191908190840183828082843750949750610b389650505050505050565b34801561036857600080fd5b50610374600435610ba6565b60408051918252519081900360200190f35b34801561039257600080fd5b50610374610c1c565b3480156103a757600080fd5b506103b0610c22565b60408051600160e060020a03199092168252519081900360200190f35b3480156103d957600080fd5b5060408051602060046024803582810135601f81018590048502860185019096528585526101e8958335600160a060020a0316953695604494919390910191908190840183828082843750949750610c469650505050505050565b34801561044057600080fd5b506102f3600160a060020a0360043581169060243516604435610cbb565b34801561046a57600080fd5b50610374600160a060020a0360043516602435610d5e565b34801561048e57600080fd5b506102f3600160a060020a0360043516610dab565b3480156104af57600080fd5b506102f3600160a060020a0360043581169060243516604435610df2565b3480156104d957600080fd5b506102f3600435610e13565b3480156104f157600080fd5b506101e8600435610e96565b34801561050957600080fd5b50610374600435610eb3565b34801561052157600080fd5b506102b3600435610ee8565b34801561053957600080fd5b50610545600435610f0c565b60408051921515835260208301919091528051918290030190f35b34801561056c57600080fd5b50610374600160a060020a0360043516610f29565b34801561058d57600080fd5b506102f3610f5c565b3480156105a257600080fd5b506101e8610fca565b3480156105b757600080fd5b506102b361107b565b3480156105cc57600080fd5b5061022661108a565b3480156105e157600080fd5b506105456004356110af565b3480156105f957600080fd5b506102266110c3565b34801561060e57600080fd5b506102f3600160a060020a0360043516611124565b34801561062f57600080fd5b50604080516020600460443581810135601f8101849004840285018401909552848452610374948235600160a060020a031694602480359536959460649492019190819084018382808284375050604080516020601f89358b018035918201839004830284018301909452808352979a9998810197919650918201945092508291508401838280828437509497505084359550505060209092013591506111689050565b3480156106df57600080fd5b506102f3600160a060020a0360043516602435151561126f565b34801561070557600080fd5b50604080516020600460443581810135601f810184900484028501840190955284845261037494823594602480359536959460649492019190819084018382808284375050604080516020601f89358b018035918201839004830284018301909452808352979a9998810197919650918201945092508291508401838280828437509497505084359550505060209092013591506112f39050565b3480156107ac57600080fd5b50604080516020601f6064356004818101359283018490048402850184019095528184526102f394600160a060020a0381358116956024803590921695604435953695608494019181908401838280828437509497506114989650505050505050565b34801561081b57600080fd5b506103746114c0565b34801561083057600080fd5b506102266004356114c6565b34801561084857600080fd5b506101e8600160a060020a036004358116906024351661157b565b34801561086f57600080fd5b506102f3600160a060020a03600435166115a9565b34801561089057600080fd5b5061089c6004356115c9565b6040518087600160a060020a0316600160a060020a031681526020018681526020018060200180602001858152602001848152602001838103835287818151815260200191508051906020019080838360005b838110156109075781810151838201526020016108ef565b50505050905090810190601f1680156109345780820380516001836020036101000a031916815260200191505b50838103825286518152865160209182019188019080838360005b8381101561096757818101518382015260200161094f565b50505050905090810190601f1680156109945780820380516001836020036101000a031916815260200191505b509850505050505050505060405180910390f35b600160e060020a03191660009081526020819052604090205460ff1690565b600e5460ff1681565b60058054604080516020601f6002600019610100600188161502019095169490940493840181900481028201810190925282815260609390929091830182828015610a5c5780601f10610a3157610100808354040283529160200191610a5c565b820191906000526020600020905b815481529060010190602001808311610a3f57829003601f168201915b505050505090505b90565b600090815260026020526040902054600160a060020a031690565b6000610a8d82610ee8565b9050600160a060020a038381169082161415610aa857600080fd5b33600160a060020a0382161480610ac45750610ac4813361157b565b1515610acf57600080fd5b600082815260026020526040808220805473ffffffffffffffffffffffffffffffffffffffff1916600160a060020a0387811691821790925591518593918516917f8c5be1e5ebec7d5bd14f71427d1e84f3dd0314c0f7b2291e5b200ac8c7c3b92591a4505050565b610ba282600d836040518082805190602001908083835b60208310610b6e5780518252601f199092019160209182019101610b4f565b51815160209384036101000a600019018019909216911617905292019485525060405193849003019092209291505061178d565b5050565b600080610bb283610e96565b1515610c08576040805160e560020a62461bcd02815260206004820152601160248201527f546f6b656e206d75737420657869737473000000000000000000000000000000604482015290519081900360640190fd5b505060009081526011602052604090205490565b60095490565b7f01ffc9a70000000000000000000000000000000000000000000000000000000081565b6000610cb283600d846040518082805190602001908083835b60208310610c7e5780518252601f199092019160209182019101610c5f565b51815160209384036101000a60001901801990921691161790529201948552506040519384900301909220929150506117a2565b90505b92915050565b610cc533826117c1565b1515610cd057600080fd5b600160a060020a0383161515610ce557600080fd5b600160a060020a0382161515610cfa57600080fd5b610d048382611820565b610d0e838261188f565b610d188282611996565b8082600160a060020a031684600160a060020a03167fddf252ad1be2c89b69c2b068fc378daa952ba7f163c4a11628f55a4df523b3ef60405160405180910390a4505050565b6000610d6983610f29565b8210610d7457600080fd5b600160a060020a0383166000908152600760205260409020805483908110610d9857fe5b9060005260206000200154905092915050565b600c54600160a060020a03163314610dc257600080fd5b610def816040805190810160405280600681526020016000805160206126148339815191528152506119df565b50565b610e0e8383836020604051908101604052806000815250611498565b505050565b600c54600090600160a060020a03163314610e2e5733610e37565b610e3782610ee8565b9050610e438183611af0565b610e54600f8363ffffffff611bea16565b50600082815260116020526040812081815590610e746001830182612517565b610e82600283016000612517565b506000600382018190556004909101555050565b600090815260016020526040902054600160a060020a0316151590565b6000610ebd610c1c565b8210610ec857600080fd5b6009805483908110610ed657fe5b90600052602060002001549050919050565b600081815260016020526040812054600160a060020a0316801515610cb557600080fd5b600080610f20600f8463ffffffff611c6816565b91509150915091565b6000600160a060020a0382161515610f4057600080fd5b50600160a060020a031660009081526003602052604090205490565b600c54600160a060020a03163314610f7357600080fd5b600c54604051600160a060020a03909116907ff8df31144d9c2f0f6b59d69b8b98abd5459d07f2742c4df920b25aae33c6482090600090a2600c805473ffffffffffffffffffffffffffffffffffffffff19169055565b600c54600090600160a060020a03163314610fe457600080fd5b600e5460ff161561103f576040805160e560020a62461bcd02815260206004820152601360248201527f4d696e74696e672069732066696e697368656400000000000000000000000000604482015290519081900360640190fd5b600e805460ff191660011790556040517fae5184fba832cb2b1f702aca6117b8d265eaf03ad33eb133f19dde0f5920fa0890600090a150600190565b600c54600160a060020a031681565b6040805180820190915260068152600080516020612614833981519152602082015281565b600080610f20600f8463ffffffff611c8216565b60068054604080516020601f6002600019610100600188161502019095169490940493840181900481028201810190925282815260609390929091830182828015610a5c5780601f10610a3157610100808354040283529160200191610a5c565b600c54600160a060020a0316331461113b57600080fd5b610def81604080519081016040528060068152602001600080516020612614833981519152815250611c91565b60008060006111836001601054611d6390919063ffffffff16565b915061118f8983611d70565b60a060405190810160405280898152602001888152602001878152602001896000146111bb57866111be565b60005b815260200189156111cf57856111d2565b60005b905260008381526011602090815260409091208251815582820151805191926112039260018501929091019061255b565b506040820151805161121f91600284019160209091019061255b565b5060608201516003820155608090910151600490910155601082905561124d600f308a63ffffffff611e0216565b9050611261600f828463ffffffff611f0316565b509098975050505050505050565b600160a060020a03821633141561128557600080fd5b336000818152600460209081526040808320600160a060020a03871680855290835292819020805460ff1916861515908117909155815190815290519293927f17307eab39ab6107e8899845ad3d59bd9653f200f220920489ca2b5937696c31929181900390910190a35050565b600080600061132533604080519081016040528060068152602001600080516020612614833981519152815250610b38565b61132e89610e96565b1515611384576040805160e560020a62461bcd02815260206004820152601160248201527f546f6b656e206d75737420657869737473000000000000000000000000000000604482015290519081900360640190fd5b61138d89610ba6565b915060008811156113e4576113a8828963ffffffff611d6316565b91506113bb600f8a63ffffffff611bea16565b506113ce600f308463ffffffff611e0216565b90506113e2600f828b63ffffffff611f0316565b505b60a060405190810160405280838152602001888152602001878152602001836000146114105786611413565b60005b815260200183156114245785611427565b60005b905260008a81526011602090815260409091208251815582820151805191926114589260018501929091019061255b565b506040820151805161147491600284019160209091019061255b565b50606082015160038201556080909101516004909101555096979650505050505050565b6114a3848484610cbb565b6114af84848484611f12565b15156114ba57600080fd5b50505050565b60105481565b60606114d182610e96565b15156114dc57600080fd5b6000828152600b602090815260409182902080548351601f60026000196101006001861615020190931692909204918201849004840281018401909452808452909183018282801561156f5780601f106115445761010080835404028352916020019161156f565b820191906000526020600020905b81548152906001019060200180831161155257829003601f168201915b50505050509050919050565b600160a060020a03918216600090815260046020908152604080832093909416825291909152205460ff1690565b600c54600160a060020a031633146115c057600080fd5b610def8161207f565b60008060608060008060006115dd88610e96565b1515611633576040805160e560020a62461bcd02815260206004820152601160248201527f546f6b656e206d75737420657869737473000000000000000000000000000000604482015290519081900360640190fd5b50600087815260116020526040902061164b88610ee8565b815460018084018054604080516020600295841615610100026000190190931694909404601f8101839004830285018301909152808452949b50929950909290918301828280156116dd5780601f106116b2576101008083540402835291602001916116dd565b820191906000526020600020905b8154815290600101906020018083116116c057829003601f168201915b50505060028085018054604080516020601f6000196101006001871615020190941695909504928301859004850281018501909152818152959a50909350915083018282801561176e5780601f106117435761010080835404028352916020019161176e565b820191906000526020600020905b81548152906001019060200180831161175157829003601f168201915b5050505050935080600301549250806004015491505091939550919395565b61179782826117a2565b1515610ba257600080fd5b600160a060020a03166000908152602091909152604090205460ff1690565b6000806117cd83610ee8565b905080600160a060020a031684600160a060020a03161480611808575083600160a060020a03166117fd84610a67565b600160a060020a0316145b806118185750611818818561157b565b949350505050565b81600160a060020a031661183382610ee8565b600160a060020a03161461184657600080fd5b600081815260026020526040902054600160a060020a031615610ba2576000908152600260205260409020805473ffffffffffffffffffffffffffffffffffffffff1916905550565b600080600061189e85856120fd565b600084815260086020908152604080832054600160a060020a03891684526007909252909120549093506118d990600163ffffffff61219316565b600160a060020a03861660009081526007602052604090208054919350908390811061190157fe5b90600052602060002001549050806007600087600160a060020a0316600160a060020a031681526020019081526020016000208481548110151561194157fe5b6000918252602080832090910192909255600160a060020a03871681526007909152604090208054906119789060001983016125d9565b50600093845260086020526040808520859055908452909220555050565b60006119a283836121a5565b50600160a060020a039091166000908152600760209081526040808320805460018101825590845282842081018590559383526008909152902055565b611a4982600d836040518082805190602001908083835b60208310611a155780518252601f1990920191602091820191016119f6565b51815160209384036101000a6000190180199092169116179052920194855250604051938490030190922092915050612235565b81600160a060020a03167fd211483f91fc6eff862467f8de606587a30c8fc9981056f051b897a418df803a826040518080602001828103825283818151815260200191508051906020019080838360005b83811015611ab2578181015183820152602001611a9a565b50505050905090810190601f168015611adf5780820380516001836020036101000a031916815260200191505b509250505060405180910390a25050565b6000806000611aff8585612257565b6000848152600b60205260409020546002600019610100600184161502019091160415611b3d576000848152600b60205260408120611b3d91612517565b6000848152600a6020526040902054600954909350611b6390600163ffffffff61219316565b9150600982815481101515611b7457fe5b9060005260206000200154905080600984815481101515611b9157fe5b60009182526020822001919091556009805484908110611bad57fe5b6000918252602090912001556009805490611bcc9060001983016125d9565b506000938452600a6020526040808520859055908452909220555050565b6000811580611c005750611bfe83836122a7565b155b15611c0d57506000610cb5565b6000828152602084815260408083208380529091528082205460018084529190922054611c3e92869290919061231f565b50600081815260209283526040808220828052909352828120819055600181529182209190915590565b600080611c7784846001612350565b915091509250929050565b600080611c7784846000612350565b611cfb82600d836040518082805190602001908083835b60208310611cc75780518252601f199092019160209182019101611ca8565b51815160209384036101000a6000190180199092169116179052920194855250604051938490030190922092915050612396565b81600160a060020a03167fbfec83d64eaa953f2708271a023ab9ee82057f8f3578d548c1a4ba0b5b7004898260405180806020018281038252838181518152602001915080519060200190808383600083811015611ab2578181015183820152602001611a9a565b81810182811015610cb557fe5b600e5460ff1615611dcb576040805160e560020a62461bcd02815260206004820152601360248201527f4d696e74696e672069732066696e697368656400000000000000000000000000604482015290519081900360640190fd5b611df833604080519081016040528060068152602001600080516020612614833981519152815250610b38565b610ba282826123bb565b6000806000611e108661240a565b1515611e1f5760009250611efa565b611e2c8660006001612350565b90925090505b8015801590611ed357506001151585600160a060020a0316630ff4c916836040518263ffffffff167c010000000000000000000000000000000000000000000000000000000002815260040180828152602001915050602060405180830381600087803b158015611ea257600080fd5b505af1158015611eb6573d6000803e3d6000fd5b505050506040513d6020811015611ecc57600080fd5b5051851014155b15611ef65760009081526020868152604080832060018452909152902054611e32565b8092505b50509392505050565b6000611818848484600061244b565b600080611f2785600160a060020a03166124b4565b1515611f365760019150612076565b6040517f150b7a020000000000000000000000000000000000000000000000000000000081523360048201818152600160a060020a03898116602485015260448401889052608060648501908152875160848601528751918a169463150b7a0294938c938b938b93909160a490910190602085019080838360005b83811015611fc9578181015183820152602001611fb1565b50505050905090810190601f168015611ff65780820380516001836020036101000a031916815260200191505b5095505050505050602060405180830381600087803b15801561201857600080fd5b505af115801561202c573d6000803e3d6000fd5b505050506040513d602081101561204257600080fd5b5051600160e060020a031981167f150b7a020000000000000000000000000000000000000000000000000000000014925090505b50949350505050565b600160a060020a038116151561209457600080fd5b600c54604051600160a060020a038084169216907f8be0079c531659141344cd1fd0a4f28419497f9722a3daafe3b4186f6b6457e090600090a3600c805473ffffffffffffffffffffffffffffffffffffffff1916600160a060020a0392909216919091179055565b81600160a060020a031661211082610ee8565b600160a060020a03161461212357600080fd5b600160a060020a03821660009081526003602052604090205461214d90600163ffffffff61219316565b600160a060020a03909216600090815260036020908152604080832094909455918152600190915220805473ffffffffffffffffffffffffffffffffffffffff19169055565b60008282111561219f57fe5b50900390565b600081815260016020526040902054600160a060020a0316156121c757600080fd5b6000818152600160208181526040808420805473ffffffffffffffffffffffffffffffffffffffff1916600160a060020a038816908117909155845260039091529091205461221591611d63565b600160a060020a0390921660009081526003602052604090209190915550565b600160a060020a0316600090815260209190915260409020805460ff19169055565b6122618282611820565b61226b828261188f565b6040518190600090600160a060020a038516907fddf252ad1be2c89b69c2b068fc378daa952ba7f163c4a11628f55a4df523b3ef908390a45050565b6000818152602083815260408083208380529091528120541580156122e2575060008281526020848152604080832060018452909152902054155b15612317576000808052602084815260408083206001845290915290205482141561230f57506001610cb5565b506000610cb5565b506001610cb5565b6000828152602085815260408083209315808452938252808320869055948252948552838120911581529352912055565b60008061235d85856122a7565b151561236e5750600090508061238e565b505060008281526020848152604080832084151584529091529020546001905b935093915050565b600160a060020a0316600090815260209190915260409020805460ff19166001179055565b6123c582826124bc565b600980546000838152600a60205260408120829055600182018355919091527f6e1540171b6c0c960b71a7020d9f60077f6af931a8bbf590da0223dacf75c7af015550565b600080600061241c8460006001612350565b90925090505b80156124445761243484826001612350565b6001909401939092509050612422565b5050919050565b60008061245886856122a7565b15801561246a575061246a86866122a7565b156124ab575060008481526020868152604080832085151584529091529020546124968686868661231f565b6124a28685838661231f565b60019150612076565b60009150612076565b6000903b1190565b600160a060020a03821615156124d157600080fd5b6124db8282611996565b6040518190600160a060020a038416906000907fddf252ad1be2c89b69c2b068fc378daa952ba7f163c4a11628f55a4df523b3ef908290a45050565b50805460018160011615610100020316600290046000825580601f1061253d5750610def565b601f016020900490600052602060002090810190610def91906125f9565b828054600181600116156101000203166002900490600052602060002090601f016020900481019282601f1061259c57805160ff19168380011785556125c9565b828001600101855582156125c9579182015b828111156125c95782518255916020019190600101906125ae565b506125d59291506125f9565b5090565b815481835581811115610e0e57600083815260209020610e0e9181019083015b610a6491905b808211156125d557600081556001016125ff56006d696e7465720000000000000000000000000000000000000000000000000000a165627a7a723058204c7fed6f12228f201d0d59d997d86c7312784f5701134e5458ad56889fda38f60029",
  "source": "pragma solidity ^0.4.24;\n\nimport \"./token/ERC721RBACMintableToken.sol\";\nimport \"./libraries/OrderedLinkedListLib.sol\";\n\n\ncontract WallOfChainToken is ERC721RBACMintableToken {\n  using OrderedLinkedListLib for OrderedLinkedListLib.OrderedLinkedList;\n\n  OrderedLinkedListLib.OrderedLinkedList list;\n\n  struct WallStructure {\n    uint256 value;\n    string firstName;\n    string lastName;\n    uint256 pattern;\n    uint256 icon;\n  }\n\n  uint256 public progressiveId = 0;\n\n  // Mapping from token ID to the structures\n  mapping(uint256 => WallStructure) structureIndex;\n\n  constructor(string _name, string _symbol) public\n  ERC721RBACMintableToken(_name, _symbol)\n  {}\n\n  function newToken(\n    address _beneficiary,\n    uint256 _value,\n    string _firstName,\n    string _lastName,\n    uint256 _pattern,\n    uint256 _icon\n  )\n  public\n  returns (uint256)\n  {\n    uint256 tokenId = progressiveId.add(1);\n    _mint(_beneficiary, tokenId);\n    structureIndex[tokenId] = WallStructure(\n      _value,\n      _firstName,\n      _lastName,\n      _value == 0 ? 0 : _pattern,\n      _value == 0 ? 0 : _icon\n    );\n    progressiveId = tokenId;\n\n    uint256 position = list.getSortedSpot(StructureInterface(this), _value);\n    list.insertBefore(position, tokenId);\n\n    return tokenId;\n  }\n\n  function editToken (\n    uint256 _tokenId,\n    uint256 _value,\n    string _firstName,\n    string _lastName,\n    uint256 _pattern,\n    uint256 _icon\n  )\n  public\n  hasMintPermission\n  returns (uint256)\n  {\n    require(\n      exists(_tokenId),\n      \"Token must exists\"\n    );\n\n    uint256 value = getValue(_tokenId);\n\n    if (_value > 0) {\n      value = value.add(_value); // add the new value sent\n\n      // reorder the list\n      list.remove(_tokenId);\n      uint256 position = list.getSortedSpot(StructureInterface(this), value);\n      list.insertBefore(position, _tokenId);\n    }\n\n    structureIndex[_tokenId] = WallStructure(\n      value,\n      _firstName,\n      _lastName,\n      value == 0 ? 0 : _pattern,\n      value == 0 ? 0 : _icon\n    );\n\n    return _tokenId;\n  }\n\n  function getWall (uint256 _tokenId)\n  public\n  view\n  returns (\n    address tokenOwner,\n    uint256 value,\n    string firstName,\n    string lastName,\n    uint256 pattern,\n    uint256 icon\n  )\n  {\n    require(\n      exists(_tokenId),\n      \"Token must exists\"\n    );\n\n    WallStructure storage wall = structureIndex[_tokenId];\n\n    tokenOwner = ownerOf(_tokenId);\n\n    value = wall.value;\n    firstName = wall.firstName;\n    lastName = wall.lastName;\n    pattern = wall.pattern;\n    icon = wall.icon;\n  }\n\n  function getValue (uint256 _tokenId) public view returns (uint256) {\n    require(\n      exists(_tokenId),\n      \"Token must exists\"\n    );\n    WallStructure storage wall = structureIndex[_tokenId];\n    return wall.value;\n  }\n\n  function getNextNode(uint256 _tokenId) public view returns (bool, uint256) {\n    return list.getNextNode(_tokenId);\n  }\n\n  function getPreviousNode(\n    uint256 _tokenId\n  )\n  public\n  view\n  returns (bool, uint256)\n  {\n    return list.getPreviousNode(_tokenId);\n  }\n\n  /**\n   * @dev Only contract owner or token owner can burn\n   */\n  function burn(uint256 _tokenId) public {\n    address tokenOwner = msg.sender == owner ? ownerOf(_tokenId) : msg.sender;\n    super._burn(tokenOwner, _tokenId);\n    list.remove(_tokenId);\n    delete structureIndex[_tokenId];\n  }\n}\n",
  "sourcePath": "/Users/vittominacori/Projects/paneedesign/wallofchain/wallofchain-smartcontracts/contracts/WallOfChainToken.sol",
  "compiler": {
    "name": "solc",
    "version": "0.4.24+commit.e67f0147.Emscripten.clang"
  },
  "schemaVersion": "2.0.1",
  "updatedAt": "2018-09-12T10:44:23.545Z"
}